{"project/contracts/PonziLab.sol":{"PonziLab":{"abi":[{"inputs":[],"stateMutability":"nonpayable","type":"constructor"},{"anonymous":false,"inputs":[{"indexed":true,"internalType":"address","name":"user","type":"address"},{"indexed":false,"internalType":"uint256","name":"amount","type":"uint256"},{"indexed":false,"internalType":"uint256","name":"blockNumber","type":"uint256"}],"name":"Deposited","type":"event"},{"anonymous":false,"inputs":[{"indexed":true,"internalType":"address","name":"owner","type":"address"},{"indexed":false,"internalType":"uint256","name":"amount","type":"uint256"},{"indexed":false,"internalType":"uint256","name":"blockNumber","type":"uint256"}],"name":"OwnerWithdraw","type":"event"},{"anonymous":false,"inputs":[{"indexed":true,"internalType":"address","name":"user","type":"address"},{"indexed":false,"internalType":"uint256","name":"amount","type":"uint256"},{"indexed":false,"internalType":"uint256","name":"blockNumber","type":"uint256"}],"name":"Withdrawn","type":"event"},{"inputs":[],"name":"getBalance","outputs":[{"internalType":"uint256","name":"","type":"uint256"}],"stateMutability":"view","type":"function"},{"inputs":[],"name":"getParticipantCount","outputs":[{"internalType":"uint256","name":"","type":"uint256"}],"stateMutability":"view","type":"function"},{"inputs":[],"name":"owner","outputs":[{"internalType":"address","name":"","type":"address"}],"stateMutability":"view","type":"function"},{"inputs":[],"name":"ownerWithdrawAll","outputs":[],"stateMutability":"nonpayable","type":"function"},{"inputs":[{"internalType":"uint256","name":"","type":"uint256"}],"name":"participantList","outputs":[{"internalType":"address","name":"","type":"address"}],"stateMutability":"view","type":"function"},{"inputs":[{"internalType":"address","name":"","type":"address"}],"name":"participants","outputs":[{"internalType":"uint256","name":"deposited","type":"uint256"},{"internalType":"uint256","name":"reward","type":"uint256"},{"internalType":"bool","name":"exists","type":"bool"}],"stateMutability":"view","type":"function"},{"inputs":[],"name":"participate","outputs":[],"stateMutability":"payable","type":"function"},{"inputs":[],"name":"rewardRate","outputs":[{"internalType":"uint256","name":"","type":"uint256"}],"stateMutability":"view","type":"function"},{"inputs":[],"name":"totalDeposited","outputs":[{"internalType":"uint256","name":"","type":"uint256"}],"stateMutability":"view","type":"function"},{"inputs":[],"name":"withdraw","outputs":[],"stateMutability":"nonpayable","type":"function"}],"evm":{"bytecode":{"linkReferences":{},"object":"6080604052600a600455348015610014575f80fd5b50335f806101000a81548173ffffffffffffffffffffffffffffffffffffffff021916908373ffffffffffffffffffffffffffffffffffffffff160217905550610e3b806100615f395ff3fe608060405260043610610090575f3560e01c80638da5cb5b116100585780638da5cb5b14610178578063ad605729146101a2578063d11711a2146101cc578063e0d5af94146101d6578063ff50abdc146101ec57610090565b806309e69ede146100945780630e6fdaa1146100d257806312065fe01461010e5780633ccfd60b146101385780637b0a47ee1461014e575b5f80fd5b34801561009f575f80fd5b506100ba60048036038101906100b5919061095f565b610216565b6040516100c9939291906109bc565b60405180910390f35b3480156100dd575f80fd5b506100f860048036038101906100f39190610a1b565b610248565b6040516101059190610a55565b60405180910390f35b348015610119575f80fd5b50610122610283565b60405161012f9190610a6e565b60405180910390f35b348015610143575f80fd5b5061014c61028a565b005b348015610159575f80fd5b5061016261043f565b60405161016f9190610a6e565b60405180910390f35b348015610183575f80fd5b5061018c610445565b6040516101999190610a55565b60405180910390f35b3480156101ad575f80fd5b506101b6610468565b6040516101c39190610a6e565b60405180910390f35b6101d4610474565b005b3480156101e1575f80fd5b506101ea6106ed565b005b3480156101f7575f80fd5b506102006108fb565b60405161020d9190610a6e565b60405180910390f35b6001602052805f5260405f205f91509050805f015490806001015490806002015f9054906101000a900460ff16905083565b60028181548110610257575f80fd5b905f5260205f20015f915054906101000a900473ffffffffffffffffffffffffffffffffffffffff1681565b5f47905090565b5f60015f3373ffffffffffffffffffffffffffffffffffffffff1673ffffffffffffffffffffffffffffffffffffffff1681526020019081526020015f2090505f815f01541161030f576040517f08c379a000000000000000000000000000000000000000000000000000000000815260040161030690610ae1565b60405180910390fd5b5f8160010154825f01546103239190610b2c565b905047811115610331574790505b5f825f01819055505f82600101819055505f3373ffffffffffffffffffffffffffffffffffffffff168260405161036790610b8c565b5f6040518083038185875af1925050503d805f81146103a1576040519150601f19603f3d011682016040523d82523d5f602084013e6103a6565b606091505b50509050806103ea576040517f08c379a00000000000000000000000000000000000000000000000000000000081526004016103e190610bea565b60405180910390fd5b3373ffffffffffffffffffffffffffffffffffffffff167f92ccf450a286a957af52509bc1c9939d1a6a481783e142e41e2499f0bb66ebc68343604051610432929190610c08565b60405180910390a2505050565b60045481565b5f8054906101000a900473ffffffffffffffffffffffffffffffffffffffff1681565b5f600280549050905090565b5f34116104b6576040517f08c379a00000000000000000000000000000000000000000000000000000000081526004016104ad90610c79565b60405180910390fd5b60015f3373ffffffffffffffffffffffffffffffffffffffff1673ffffffffffffffffffffffffffffffffffffffff1681526020019081526020015f206002015f9054906101000a900460ff166105bf57600233908060018154018082558091505060019003905f5260205f20015f9091909190916101000a81548173ffffffffffffffffffffffffffffffffffffffff021916908373ffffffffffffffffffffffffffffffffffffffff1602179055506001805f3373ffffffffffffffffffffffffffffffffffffffff1673ffffffffffffffffffffffffffffffffffffffff1681526020019081526020015f206002015f6101000a81548160ff0219169083151502179055505b3460015f3373ffffffffffffffffffffffffffffffffffffffff1673ffffffffffffffffffffffffffffffffffffffff1681526020019081526020015f205f015f82825461060d9190610b2c565b925050819055506064600454346106249190610c97565b61062e9190610d05565b60015f3373ffffffffffffffffffffffffffffffffffffffff1673ffffffffffffffffffffffffffffffffffffffff1681526020019081526020015f206001015f82825461067c9190610b2c565b925050819055503460035f8282546106949190610b2c565b925050819055503373ffffffffffffffffffffffffffffffffffffffff167f73a19dd210f1a7f902193214c0ee91dd35ee5b4d920cba8d519eca65a7b488ca34436040516106e3929190610c08565b60405180910390a2565b5f8054906101000a900473ffffffffffffffffffffffffffffffffffffffff1673ffffffffffffffffffffffffffffffffffffffff163373ffffffffffffffffffffffffffffffffffffffff161461077a576040517f08c379a000000000000000000000000000000000000000000000000000000000815260040161077190610d7f565b60405180910390fd5b5f4790505f81116107c0576040517f08c379a00000000000000000000000000000000000000000000000000000000081526004016107b790610de7565b60405180910390fd5b5f805f9054906101000a900473ffffffffffffffffffffffffffffffffffffffff1673ffffffffffffffffffffffffffffffffffffffff168260405161080590610b8c565b5f6040518083038185875af1925050503d805f811461083f576040519150601f19603f3d011682016040523d82523d5f602084013e610844565b606091505b5050905080610888576040517f08c379a000000000000000000000000000000000000000000000000000000000815260040161087f90610bea565b60405180910390fd5b5f8054906101000a900473ffffffffffffffffffffffffffffffffffffffff1673ffffffffffffffffffffffffffffffffffffffff167f1854f40cafc6d1d892b7723388876e2ddaa1e0509aed7e9c9d0e2a54d1a6e93683436040516108ef929190610c08565b60405180910390a25050565b60035481565b5f80fd5b5f73ffffffffffffffffffffffffffffffffffffffff82169050919050565b5f61092e82610905565b9050919050565b61093e81610924565b8114610948575f80fd5b50565b5f8135905061095981610935565b92915050565b5f6020828403121561097457610973610901565b5b5f6109818482850161094b565b91505092915050565b5f819050919050565b61099c8161098a565b82525050565b5f8115159050919050565b6109b6816109a2565b82525050565b5f6060820190506109cf5f830186610993565b6109dc6020830185610993565b6109e960408301846109ad565b949350505050565b6109fa8161098a565b8114610a04575f80fd5b50565b5f81359050610a15816109f1565b92915050565b5f60208284031215610a3057610a2f610901565b5b5f610a3d84828501610a07565b91505092915050565b610a4f81610924565b82525050565b5f602082019050610a685f830184610a46565b92915050565b5f602082019050610a815f830184610993565b92915050565b5f82825260208201905092915050565b7f4e6f7468696e6720746f207769746864726177000000000000000000000000005f82015250565b5f610acb601383610a87565b9150610ad682610a97565b602082019050919050565b5f6020820190508181035f830152610af881610abf565b9050919050565b7f4e487b71000000000000000000000000000000000000000000000000000000005f52601160045260245ffd5b5f610b368261098a565b9150610b418361098a565b9250828201905080821115610b5957610b58610aff565b5b92915050565b5f81905092915050565b50565b5f610b775f83610b5f565b9150610b8282610b69565b5f82019050919050565b5f610b9682610b6c565b9150819050919050565b7f5472616e73666572206661696c656400000000000000000000000000000000005f82015250565b5f610bd4600f83610a87565b9150610bdf82610ba0565b602082019050919050565b5f6020820190508181035f830152610c0181610bc8565b9050919050565b5f604082019050610c1b5f830185610993565b610c286020830184610993565b9392505050565b7f53656e64204554480000000000000000000000000000000000000000000000005f82015250565b5f610c63600883610a87565b9150610c6e82610c2f565b602082019050919050565b5f6020820190508181035f830152610c9081610c57565b9050919050565b5f610ca18261098a565b9150610cac8361098a565b9250828202610cba8161098a565b91508282048414831517610cd157610cd0610aff565b5b5092915050565b7f4e487b71000000000000000000000000000000000000000000000000000000005f52601260045260245ffd5b5f610d0f8261098a565b9150610d1a8361098a565b925082610d2a57610d29610cd8565b5b828204905092915050565b7f4e6f74206f776e657200000000000000000000000000000000000000000000005f82015250565b5f610d69600983610a87565b9150610d7482610d35565b602082019050919050565b5f6020820190508181035f830152610d9681610d5d565b9050919050565b7f456d7074790000000000000000000000000000000000000000000000000000005f82015250565b5f610dd1600583610a87565b9150610ddc82610d9d565b602082019050919050565b5f6020820190508181035f830152610dfe81610dc5565b905091905056fea2646970667358221220c013fa9d77e685176776985b71e3ffeef6c3291c4e5b91fe9c9b9bc21b4fd7f964736f6c63430008140033","opcodes":"PUSH1 0x80 PUSH1 0x40 MSTORE PUSH1 0xA PUSH1 0x4 SSTORE CALLVALUE DUP1 ISZERO PUSH2 0x14 JUMPI PUSH0 DUP1 REVERT JUMPDEST POP CALLER PUSH0 DUP1 PUSH2 0x100 EXP DUP2 SLOAD DUP2 PUSH20 0xFFFFFFFFFFFFFFFFFFFFFFFFFFFFFFFFFFFFFFFF MUL NOT AND SWAP1 DUP4 PUSH20 0xFFFFFFFFFFFFFFFFFFFFFFFFFFFFFFFFFFFFFFFF AND MUL OR SWAP1 SSTORE POP PUSH2 0xE3B DUP1 PUSH2 0x61 PUSH0 CODECOPY PUSH0 RETURN INVALID PUSH1 0x80 PUSH1 0x40 MSTORE PUSH1 0x4 CALLDATASIZE LT PUSH2 0x90 JUMPI PUSH0 CALLDATALOAD PUSH1 0xE0 SHR DUP1 PUSH4 0x8DA5CB5B GT PUSH2 0x58 JUMPI DUP1 PUSH4 0x8DA5CB5B EQ PUSH2 0x178 JUMPI DUP1 PUSH4 0xAD605729 EQ PUSH2 0x1A2 JUMPI DUP1 PUSH4 0xD11711A2 EQ PUSH2 0x1CC JUMPI DUP1 PUSH4 0xE0D5AF94 EQ PUSH2 0x1D6 JUMPI DUP1 PUSH4 0xFF50ABDC EQ PUSH2 0x1EC JUMPI PUSH2 0x90 JUMP JUMPDEST DUP1 PUSH4 0x9E69EDE EQ PUSH2 0x94 JUMPI DUP1 PUSH4 0xE6FDAA1 EQ PUSH2 0xD2 JUMPI DUP1 PUSH4 0x12065FE0 EQ PUSH2 0x10E JUMPI DUP1 PUSH4 0x3CCFD60B EQ PUSH2 0x138 JUMPI DUP1 PUSH4 0x7B0A47EE EQ PUSH2 0x14E JUMPI JUMPDEST PUSH0 DUP1 REVERT JUMPDEST CALLVALUE DUP1 ISZERO PUSH2 0x9F JUMPI PUSH0 DUP1 REVERT JUMPDEST POP PUSH2 0xBA PUSH1 0x4 DUP1 CALLDATASIZE SUB DUP2 ADD SWAP1 PUSH2 0xB5 SWAP2 SWAP1 PUSH2 0x95F JUMP JUMPDEST PUSH2 0x216 JUMP JUMPDEST PUSH1 0x40 MLOAD PUSH2 0xC9 SWAP4 SWAP3 SWAP2 SWAP1 PUSH2 0x9BC JUMP JUMPDEST PUSH1 0x40 MLOAD DUP1 SWAP2 SUB SWAP1 RETURN JUMPDEST CALLVALUE DUP1 ISZERO PUSH2 0xDD JUMPI PUSH0 DUP1 REVERT JUMPDEST POP PUSH2 0xF8 PUSH1 0x4 DUP1 CALLDATASIZE SUB DUP2 ADD SWAP1 PUSH2 0xF3 SWAP2 SWAP1 PUSH2 0xA1B JUMP JUMPDEST PUSH2 0x248 JUMP JUMPDEST PUSH1 0x40 MLOAD PUSH2 0x105 SWAP2 SWAP1 PUSH2 0xA55 JUMP JUMPDEST PUSH1 0x40 MLOAD DUP1 SWAP2 SUB SWAP1 RETURN JUMPDEST CALLVALUE DUP1 ISZERO PUSH2 0x119 JUMPI PUSH0 DUP1 REVERT JUMPDEST POP PUSH2 0x122 PUSH2 0x283 JUMP JUMPDEST PUSH1 0x40 MLOAD PUSH2 0x12F SWAP2 SWAP1 PUSH2 0xA6E JUMP JUMPDEST PUSH1 0x40 MLOAD DUP1 SWAP2 SUB SWAP1 RETURN JUMPDEST CALLVALUE DUP1 ISZERO PUSH2 0x143 JUMPI PUSH0 DUP1 REVERT JUMPDEST POP PUSH2 0x14C PUSH2 0x28A JUMP JUMPDEST STOP JUMPDEST CALLVALUE DUP1 ISZERO PUSH2 0x159 JUMPI PUSH0 DUP1 REVERT JUMPDEST POP PUSH2 0x162 PUSH2 0x43F JUMP JUMPDEST PUSH1 0x40 MLOAD PUSH2 0x16F SWAP2 SWAP1 PUSH2 0xA6E JUMP JUMPDEST PUSH1 0x40 MLOAD DUP1 SWAP2 SUB SWAP1 RETURN JUMPDEST CALLVALUE DUP1 ISZERO PUSH2 0x183 JUMPI PUSH0 DUP1 REVERT JUMPDEST POP PUSH2 0x18C PUSH2 0x445 JUMP JUMPDEST PUSH1 0x40 MLOAD PUSH2 0x199 SWAP2 SWAP1 PUSH2 0xA55 JUMP JUMPDEST PUSH1 0x40 MLOAD DUP1 SWAP2 SUB SWAP1 RETURN JUMPDEST CALLVALUE DUP1 ISZERO PUSH2 0x1AD JUMPI PUSH0 DUP1 REVERT JUMPDEST POP PUSH2 0x1B6 PUSH2 0x468 JUMP JUMPDEST PUSH1 0x40 MLOAD PUSH2 0x1C3 SWAP2 SWAP1 PUSH2 0xA6E JUMP JUMPDEST PUSH1 0x40 MLOAD DUP1 SWAP2 SUB SWAP1 RETURN JUMPDEST PUSH2 0x1D4 PUSH2 0x474 JUMP JUMPDEST STOP JUMPDEST CALLVALUE DUP1 ISZERO PUSH2 0x1E1 JUMPI PUSH0 DUP1 REVERT JUMPDEST POP PUSH2 0x1EA PUSH2 0x6ED JUMP JUMPDEST STOP JUMPDEST CALLVALUE DUP1 ISZERO PUSH2 0x1F7 JUMPI PUSH0 DUP1 REVERT JUMPDEST POP PUSH2 0x200 PUSH2 0x8FB JUMP JUMPDEST PUSH1 0x40 MLOAD PUSH2 0x20D SWAP2 SWAP1 PUSH2 0xA6E JUMP JUMPDEST PUSH1 0x40 MLOAD DUP1 SWAP2 SUB SWAP1 RETURN JUMPDEST PUSH1 0x1 PUSH1 0x20 MSTORE DUP1 PUSH0 MSTORE PUSH1 0x40 PUSH0 KECCAK256 PUSH0 SWAP2 POP SWAP1 POP DUP1 PUSH0 ADD SLOAD SWAP1 DUP1 PUSH1 0x1 ADD SLOAD SWAP1 DUP1 PUSH1 0x2 ADD PUSH0 SWAP1 SLOAD SWAP1 PUSH2 0x100 EXP SWAP1 DIV PUSH1 0xFF AND SWAP1 POP DUP4 JUMP JUMPDEST PUSH1 0x2 DUP2 DUP2 SLOAD DUP2 LT PUSH2 0x257 JUMPI PUSH0 DUP1 REVERT JUMPDEST SWAP1 PUSH0 MSTORE PUSH1 0x20 PUSH0 KECCAK256 ADD PUSH0 SWAP2 POP SLOAD SWAP1 PUSH2 0x100 EXP SWAP1 DIV PUSH20 0xFFFFFFFFFFFFFFFFFFFFFFFFFFFFFFFFFFFFFFFF AND DUP2 JUMP JUMPDEST PUSH0 SELFBALANCE SWAP1 POP SWAP1 JUMP JUMPDEST PUSH0 PUSH1 0x1 PUSH0 CALLER PUSH20 0xFFFFFFFFFFFFFFFFFFFFFFFFFFFFFFFFFFFFFFFF AND PUSH20 0xFFFFFFFFFFFFFFFFFFFFFFFFFFFFFFFFFFFFFFFF AND DUP2 MSTORE PUSH1 0x20 ADD SWAP1 DUP2 MSTORE PUSH1 0x20 ADD PUSH0 KECCAK256 SWAP1 POP PUSH0 DUP2 PUSH0 ADD SLOAD GT PUSH2 0x30F JUMPI PUSH1 0x40 MLOAD PUSH32 0x8C379A000000000000000000000000000000000000000000000000000000000 DUP2 MSTORE PUSH1 0x4 ADD PUSH2 0x306 SWAP1 PUSH2 0xAE1 JUMP JUMPDEST PUSH1 0x40 MLOAD DUP1 SWAP2 SUB SWAP1 REVERT JUMPDEST PUSH0 DUP2 PUSH1 0x1 ADD SLOAD DUP3 PUSH0 ADD SLOAD PUSH2 0x323 SWAP2 SWAP1 PUSH2 0xB2C JUMP JUMPDEST SWAP1 POP SELFBALANCE DUP2 GT ISZERO PUSH2 0x331 JUMPI SELFBALANCE SWAP1 POP JUMPDEST PUSH0 DUP3 PUSH0 ADD DUP2 SWAP1 SSTORE POP PUSH0 DUP3 PUSH1 0x1 ADD DUP2 SWAP1 SSTORE POP PUSH0 CALLER PUSH20 0xFFFFFFFFFFFFFFFFFFFFFFFFFFFFFFFFFFFFFFFF AND DUP3 PUSH1 0x40 MLOAD PUSH2 0x367 SWAP1 PUSH2 0xB8C JUMP JUMPDEST PUSH0 PUSH1 0x40 MLOAD DUP1 DUP4 SUB DUP2 DUP6 DUP8 GAS CALL SWAP3 POP POP POP RETURNDATASIZE DUP1 PUSH0 DUP2 EQ PUSH2 0x3A1 JUMPI PUSH1 0x40 MLOAD SWAP2 POP PUSH1 0x1F NOT PUSH1 0x3F RETURNDATASIZE ADD AND DUP3 ADD PUSH1 0x40 MSTORE RETURNDATASIZE DUP3 MSTORE RETURNDATASIZE PUSH0 PUSH1 0x20 DUP5 ADD RETURNDATACOPY PUSH2 0x3A6 JUMP JUMPDEST PUSH1 0x60 SWAP2 POP JUMPDEST POP POP SWAP1 POP DUP1 PUSH2 0x3EA JUMPI PUSH1 0x40 MLOAD PUSH32 0x8C379A000000000000000000000000000000000000000000000000000000000 DUP2 MSTORE PUSH1 0x4 ADD PUSH2 0x3E1 SWAP1 PUSH2 0xBEA JUMP JUMPDEST PUSH1 0x40 MLOAD DUP1 SWAP2 SUB SWAP1 REVERT JUMPDEST CALLER PUSH20 0xFFFFFFFFFFFFFFFFFFFFFFFFFFFFFFFFFFFFFFFF AND PUSH32 0x92CCF450A286A957AF52509BC1C9939D1A6A481783E142E41E2499F0BB66EBC6 DUP4 NUMBER PUSH1 0x40 MLOAD PUSH2 0x432 SWAP3 SWAP2 SWAP1 PUSH2 0xC08 JUMP JUMPDEST PUSH1 0x40 MLOAD DUP1 SWAP2 SUB SWAP1 LOG2 POP POP POP JUMP JUMPDEST PUSH1 0x4 SLOAD DUP2 JUMP JUMPDEST PUSH0 DUP1 SLOAD SWAP1 PUSH2 0x100 EXP SWAP1 DIV PUSH20 0xFFFFFFFFFFFFFFFFFFFFFFFFFFFFFFFFFFFFFFFF AND DUP2 JUMP JUMPDEST PUSH0 PUSH1 0x2 DUP1 SLOAD SWAP1 POP SWAP1 POP SWAP1 JUMP JUMPDEST PUSH0 CALLVALUE GT PUSH2 0x4B6 JUMPI PUSH1 0x40 MLOAD PUSH32 0x8C379A000000000000000000000000000000000000000000000000000000000 DUP2 MSTORE PUSH1 0x4 ADD PUSH2 0x4AD SWAP1 PUSH2 0xC79 JUMP JUMPDEST PUSH1 0x40 MLOAD DUP1 SWAP2 SUB SWAP1 REVERT JUMPDEST PUSH1 0x1 PUSH0 CALLER PUSH20 0xFFFFFFFFFFFFFFFFFFFFFFFFFFFFFFFFFFFFFFFF AND PUSH20 0xFFFFFFFFFFFFFFFFFFFFFFFFFFFFFFFFFFFFFFFF AND DUP2 MSTORE PUSH1 0x20 ADD SWAP1 DUP2 MSTORE PUSH1 0x20 ADD PUSH0 KECCAK256 PUSH1 0x2 ADD PUSH0 SWAP1 SLOAD SWAP1 PUSH2 0x100 EXP SWAP1 DIV PUSH1 0xFF AND PUSH2 0x5BF JUMPI PUSH1 0x2 CALLER SWAP1 DUP1 PUSH1 0x1 DUP2 SLOAD ADD DUP1 DUP3 SSTORE DUP1 SWAP2 POP POP PUSH1 0x1 SWAP1 SUB SWAP1 PUSH0 MSTORE PUSH1 0x20 PUSH0 KECCAK256 ADD PUSH0 SWAP1 SWAP2 SWAP1 SWAP2 SWAP1 SWAP2 PUSH2 0x100 EXP DUP2 SLOAD DUP2 PUSH20 0xFFFFFFFFFFFFFFFFFFFFFFFFFFFFFFFFFFFFFFFF MUL NOT AND SWAP1 DUP4 PUSH20 0xFFFFFFFFFFFFFFFFFFFFFFFFFFFFFFFFFFFFFFFF AND MUL OR SWAP1 SSTORE POP PUSH1 0x1 DUP1 PUSH0 CALLER PUSH20 0xFFFFFFFFFFFFFFFFFFFFFFFFFFFFFFFFFFFFFFFF AND PUSH20 0xFFFFFFFFFFFFFFFFFFFFFFFFFFFFFFFFFFFFFFFF AND DUP2 MSTORE PUSH1 0x20 ADD SWAP1 DUP2 MSTORE PUSH1 0x20 ADD PUSH0 KECCAK256 PUSH1 0x2 ADD PUSH0 PUSH2 0x100 EXP DUP2 SLOAD DUP2 PUSH1 0xFF MUL NOT AND SWAP1 DUP4 ISZERO ISZERO MUL OR SWAP1 SSTORE POP JUMPDEST CALLVALUE PUSH1 0x1 PUSH0 CALLER PUSH20 0xFFFFFFFFFFFFFFFFFFFFFFFFFFFFFFFFFFFFFFFF AND PUSH20 0xFFFFFFFFFFFFFFFFFFFFFFFFFFFFFFFFFFFFFFFF AND DUP2 MSTORE PUSH1 0x20 ADD SWAP1 DUP2 MSTORE PUSH1 0x20 ADD PUSH0 KECCAK256 PUSH0 ADD PUSH0 DUP3 DUP3 SLOAD PUSH2 0x60D SWAP2 SWAP1 PUSH2 0xB2C JUMP JUMPDEST SWAP3 POP POP DUP2 SWAP1 SSTORE POP PUSH1 0x64 PUSH1 0x4 SLOAD CALLVALUE PUSH2 0x624 SWAP2 SWAP1 PUSH2 0xC97 JUMP JUMPDEST PUSH2 0x62E SWAP2 SWAP1 PUSH2 0xD05 JUMP JUMPDEST PUSH1 0x1 PUSH0 CALLER PUSH20 0xFFFFFFFFFFFFFFFFFFFFFFFFFFFFFFFFFFFFFFFF AND PUSH20 0xFFFFFFFFFFFFFFFFFFFFFFFFFFFFFFFFFFFFFFFF AND DUP2 MSTORE PUSH1 0x20 ADD SWAP1 DUP2 MSTORE PUSH1 0x20 ADD PUSH0 KECCAK256 PUSH1 0x1 ADD PUSH0 DUP3 DUP3 SLOAD PUSH2 0x67C SWAP2 SWAP1 PUSH2 0xB2C JUMP JUMPDEST SWAP3 POP POP DUP2 SWAP1 SSTORE POP CALLVALUE PUSH1 0x3 PUSH0 DUP3 DUP3 SLOAD PUSH2 0x694 SWAP2 SWAP1 PUSH2 0xB2C JUMP JUMPDEST SWAP3 POP POP DUP2 SWAP1 SSTORE POP CALLER PUSH20 0xFFFFFFFFFFFFFFFFFFFFFFFFFFFFFFFFFFFFFFFF AND PUSH32 0x73A19DD210F1A7F902193214C0EE91DD35EE5B4D920CBA8D519ECA65A7B488CA CALLVALUE NUMBER PUSH1 0x40 MLOAD PUSH2 0x6E3 SWAP3 SWAP2 SWAP1 PUSH2 0xC08 JUMP JUMPDEST PUSH1 0x40 MLOAD DUP1 SWAP2 SUB SWAP1 LOG2 JUMP JUMPDEST PUSH0 DUP1 SLOAD SWAP1 PUSH2 0x100 EXP SWAP1 DIV PUSH20 0xFFFFFFFFFFFFFFFFFFFFFFFFFFFFFFFFFFFFFFFF AND PUSH20 0xFFFFFFFFFFFFFFFFFFFFFFFFFFFFFFFFFFFFFFFF AND CALLER PUSH20 0xFFFFFFFFFFFFFFFFFFFFFFFFFFFFFFFFFFFFFFFF AND EQ PUSH2 0x77A JUMPI PUSH1 0x40 MLOAD PUSH32 0x8C379A000000000000000000000000000000000000000000000000000000000 DUP2 MSTORE PUSH1 0x4 ADD PUSH2 0x771 SWAP1 PUSH2 0xD7F JUMP JUMPDEST PUSH1 0x40 MLOAD DUP1 SWAP2 SUB SWAP1 REVERT JUMPDEST PUSH0 SELFBALANCE SWAP1 POP PUSH0 DUP2 GT PUSH2 0x7C0 JUMPI PUSH1 0x40 MLOAD PUSH32 0x8C379A000000000000000000000000000000000000000000000000000000000 DUP2 MSTORE PUSH1 0x4 ADD PUSH2 0x7B7 SWAP1 PUSH2 0xDE7 JUMP JUMPDEST PUSH1 0x40 MLOAD DUP1 SWAP2 SUB SWAP1 REVERT JUMPDEST PUSH0 DUP1 PUSH0 SWAP1 SLOAD SWAP1 PUSH2 0x100 EXP SWAP1 DIV PUSH20 0xFFFFFFFFFFFFFFFFFFFFFFFFFFFFFFFFFFFFFFFF AND PUSH20 0xFFFFFFFFFFFFFFFFFFFFFFFFFFFFFFFFFFFFFFFF AND DUP3 PUSH1 0x40 MLOAD PUSH2 0x805 SWAP1 PUSH2 0xB8C JUMP JUMPDEST PUSH0 PUSH1 0x40 MLOAD DUP1 DUP4 SUB DUP2 DUP6 DUP8 GAS CALL SWAP3 POP POP POP RETURNDATASIZE DUP1 PUSH0 DUP2 EQ PUSH2 0x83F JUMPI PUSH1 0x40 MLOAD SWAP2 POP PUSH1 0x1F NOT PUSH1 0x3F RETURNDATASIZE ADD AND DUP3 ADD PUSH1 0x40 MSTORE RETURNDATASIZE DUP3 MSTORE RETURNDATASIZE PUSH0 PUSH1 0x20 DUP5 ADD RETURNDATACOPY PUSH2 0x844 JUMP JUMPDEST PUSH1 0x60 SWAP2 POP JUMPDEST POP POP SWAP1 POP DUP1 PUSH2 0x888 JUMPI PUSH1 0x40 MLOAD PUSH32 0x8C379A000000000000000000000000000000000000000000000000000000000 DUP2 MSTORE PUSH1 0x4 ADD PUSH2 0x87F SWAP1 PUSH2 0xBEA JUMP JUMPDEST PUSH1 0x40 MLOAD DUP1 SWAP2 SUB SWAP1 REVERT JUMPDEST PUSH0 DUP1 SLOAD SWAP1 PUSH2 0x100 EXP SWAP1 DIV PUSH20 0xFFFFFFFFFFFFFFFFFFFFFFFFFFFFFFFFFFFFFFFF AND PUSH20 0xFFFFFFFFFFFFFFFFFFFFFFFFFFFFFFFFFFFFFFFF AND PUSH32 0x1854F40CAFC6D1D892B7723388876E2DDAA1E0509AED7E9C9D0E2A54D1A6E936 DUP4 NUMBER PUSH1 0x40 MLOAD PUSH2 0x8EF SWAP3 SWAP2 SWAP1 PUSH2 0xC08 JUMP JUMPDEST PUSH1 0x40 MLOAD DUP1 SWAP2 SUB SWAP1 LOG2 POP POP JUMP JUMPDEST PUSH1 0x3 SLOAD DUP2 JUMP JUMPDEST PUSH0 DUP1 REVERT JUMPDEST PUSH0 PUSH20 0xFFFFFFFFFFFFFFFFFFFFFFFFFFFFFFFFFFFFFFFF DUP3 AND SWAP1 POP SWAP2 SWAP1 POP JUMP JUMPDEST PUSH0 PUSH2 0x92E DUP3 PUSH2 0x905 JUMP JUMPDEST SWAP1 POP SWAP2 SWAP1 POP JUMP JUMPDEST PUSH2 0x93E DUP2 PUSH2 0x924 JUMP JUMPDEST DUP2 EQ PUSH2 0x948 JUMPI PUSH0 DUP1 REVERT JUMPDEST POP JUMP JUMPDEST PUSH0 DUP2 CALLDATALOAD SWAP1 POP PUSH2 0x959 DUP2 PUSH2 0x935 JUMP JUMPDEST SWAP3 SWAP2 POP POP JUMP JUMPDEST PUSH0 PUSH1 0x20 DUP3 DUP5 SUB SLT ISZERO PUSH2 0x974 JUMPI PUSH2 0x973 PUSH2 0x901 JUMP JUMPDEST JUMPDEST PUSH0 PUSH2 0x981 DUP5 DUP3 DUP6 ADD PUSH2 0x94B JUMP JUMPDEST SWAP2 POP POP SWAP3 SWAP2 POP POP JUMP JUMPDEST PUSH0 DUP2 SWAP1 POP SWAP2 SWAP1 POP JUMP JUMPDEST PUSH2 0x99C DUP2 PUSH2 0x98A JUMP JUMPDEST DUP3 MSTORE POP POP JUMP JUMPDEST PUSH0 DUP2 ISZERO ISZERO SWAP1 POP SWAP2 SWAP1 POP JUMP JUMPDEST PUSH2 0x9B6 DUP2 PUSH2 0x9A2 JUMP JUMPDEST DUP3 MSTORE POP POP JUMP JUMPDEST PUSH0 PUSH1 0x60 DUP3 ADD SWAP1 POP PUSH2 0x9CF PUSH0 DUP4 ADD DUP7 PUSH2 0x993 JUMP JUMPDEST PUSH2 0x9DC PUSH1 0x20 DUP4 ADD DUP6 PUSH2 0x993 JUMP JUMPDEST PUSH2 0x9E9 PUSH1 0x40 DUP4 ADD DUP5 PUSH2 0x9AD JUMP JUMPDEST SWAP5 SWAP4 POP POP POP POP JUMP JUMPDEST PUSH2 0x9FA DUP2 PUSH2 0x98A JUMP JUMPDEST DUP2 EQ PUSH2 0xA04 JUMPI PUSH0 DUP1 REVERT JUMPDEST POP JUMP JUMPDEST PUSH0 DUP2 CALLDATALOAD SWAP1 POP PUSH2 0xA15 DUP2 PUSH2 0x9F1 JUMP JUMPDEST SWAP3 SWAP2 POP POP JUMP JUMPDEST PUSH0 PUSH1 0x20 DUP3 DUP5 SUB SLT ISZERO PUSH2 0xA30 JUMPI PUSH2 0xA2F PUSH2 0x901 JUMP JUMPDEST JUMPDEST PUSH0 PUSH2 0xA3D DUP5 DUP3 DUP6 ADD PUSH2 0xA07 JUMP JUMPDEST SWAP2 POP POP SWAP3 SWAP2 POP POP JUMP JUMPDEST PUSH2 0xA4F DUP2 PUSH2 0x924 JUMP JUMPDEST DUP3 MSTORE POP POP JUMP JUMPDEST PUSH0 PUSH1 0x20 DUP3 ADD SWAP1 POP PUSH2 0xA68 PUSH0 DUP4 ADD DUP5 PUSH2 0xA46 JUMP JUMPDEST SWAP3 SWAP2 POP POP JUMP JUMPDEST PUSH0 PUSH1 0x20 DUP3 ADD SWAP1 POP PUSH2 0xA81 PUSH0 DUP4 ADD DUP5 PUSH2 0x993 JUMP JUMPDEST SWAP3 SWAP2 POP POP JUMP JUMPDEST PUSH0 DUP3 DUP3 MSTORE PUSH1 0x20 DUP3 ADD SWAP1 POP SWAP3 SWAP2 POP POP JUMP JUMPDEST PUSH32 0x4E6F7468696E6720746F20776974686472617700000000000000000000000000 PUSH0 DUP3 ADD MSTORE POP JUMP JUMPDEST PUSH0 PUSH2 0xACB PUSH1 0x13 DUP4 PUSH2 0xA87 JUMP JUMPDEST SWAP2 POP PUSH2 0xAD6 DUP3 PUSH2 0xA97 JUMP JUMPDEST PUSH1 0x20 DUP3 ADD SWAP1 POP SWAP2 SWAP1 POP JUMP JUMPDEST PUSH0 PUSH1 0x20 DUP3 ADD SWAP1 POP DUP2 DUP2 SUB PUSH0 DUP4 ADD MSTORE PUSH2 0xAF8 DUP2 PUSH2 0xABF JUMP JUMPDEST SWAP1 POP SWAP2 SWAP1 POP JUMP JUMPDEST PUSH32 0x4E487B7100000000000000000000000000000000000000000000000000000000 PUSH0 MSTORE PUSH1 0x11 PUSH1 0x4 MSTORE PUSH1 0x24 PUSH0 REVERT JUMPDEST PUSH0 PUSH2 0xB36 DUP3 PUSH2 0x98A JUMP JUMPDEST SWAP2 POP PUSH2 0xB41 DUP4 PUSH2 0x98A JUMP JUMPDEST SWAP3 POP DUP3 DUP3 ADD SWAP1 POP DUP1 DUP3 GT ISZERO PUSH2 0xB59 JUMPI PUSH2 0xB58 PUSH2 0xAFF JUMP JUMPDEST JUMPDEST SWAP3 SWAP2 POP POP JUMP JUMPDEST PUSH0 DUP2 SWAP1 POP SWAP3 SWAP2 POP POP JUMP JUMPDEST POP JUMP JUMPDEST PUSH0 PUSH2 0xB77 PUSH0 DUP4 PUSH2 0xB5F JUMP JUMPDEST SWAP2 POP PUSH2 0xB82 DUP3 PUSH2 0xB69 JUMP JUMPDEST PUSH0 DUP3 ADD SWAP1 POP SWAP2 SWAP1 POP JUMP JUMPDEST PUSH0 PUSH2 0xB96 DUP3 PUSH2 0xB6C JUMP JUMPDEST SWAP2 POP DUP2 SWAP1 POP SWAP2 SWAP1 POP JUMP JUMPDEST PUSH32 0x5472616E73666572206661696C65640000000000000000000000000000000000 PUSH0 DUP3 ADD MSTORE POP JUMP JUMPDEST PUSH0 PUSH2 0xBD4 PUSH1 0xF DUP4 PUSH2 0xA87 JUMP JUMPDEST SWAP2 POP PUSH2 0xBDF DUP3 PUSH2 0xBA0 JUMP JUMPDEST PUSH1 0x20 DUP3 ADD SWAP1 POP SWAP2 SWAP1 POP JUMP JUMPDEST PUSH0 PUSH1 0x20 DUP3 ADD SWAP1 POP DUP2 DUP2 SUB PUSH0 DUP4 ADD MSTORE PUSH2 0xC01 DUP2 PUSH2 0xBC8 JUMP JUMPDEST SWAP1 POP SWAP2 SWAP1 POP JUMP JUMPDEST PUSH0 PUSH1 0x40 DUP3 ADD SWAP1 POP PUSH2 0xC1B PUSH0 DUP4 ADD DUP6 PUSH2 0x993 JUMP JUMPDEST PUSH2 0xC28 PUSH1 0x20 DUP4 ADD DUP5 PUSH2 0x993 JUMP JUMPDEST SWAP4 SWAP3 POP POP POP JUMP JUMPDEST PUSH32 0x53656E6420455448000000000000000000000000000000000000000000000000 PUSH0 DUP3 ADD MSTORE POP JUMP JUMPDEST PUSH0 PUSH2 0xC63 PUSH1 0x8 DUP4 PUSH2 0xA87 JUMP JUMPDEST SWAP2 POP PUSH2 0xC6E DUP3 PUSH2 0xC2F JUMP JUMPDEST PUSH1 0x20 DUP3 ADD SWAP1 POP SWAP2 SWAP1 POP JUMP JUMPDEST PUSH0 PUSH1 0x20 DUP3 ADD SWAP1 POP DUP2 DUP2 SUB PUSH0 DUP4 ADD MSTORE PUSH2 0xC90 DUP2 PUSH2 0xC57 JUMP JUMPDEST SWAP1 POP SWAP2 SWAP1 POP JUMP JUMPDEST PUSH0 PUSH2 0xCA1 DUP3 PUSH2 0x98A JUMP JUMPDEST SWAP2 POP PUSH2 0xCAC DUP4 PUSH2 0x98A JUMP JUMPDEST SWAP3 POP DUP3 DUP3 MUL PUSH2 0xCBA DUP2 PUSH2 0x98A JUMP JUMPDEST SWAP2 POP DUP3 DUP3 DIV DUP5 EQ DUP4 ISZERO OR PUSH2 0xCD1 JUMPI PUSH2 0xCD0 PUSH2 0xAFF JUMP JUMPDEST JUMPDEST POP SWAP3 SWAP2 POP POP JUMP JUMPDEST PUSH32 0x4E487B7100000000000000000000000000000000000000000000000000000000 PUSH0 MSTORE PUSH1 0x12 PUSH1 0x4 MSTORE PUSH1 0x24 PUSH0 REVERT JUMPDEST PUSH0 PUSH2 0xD0F DUP3 PUSH2 0x98A JUMP JUMPDEST SWAP2 POP PUSH2 0xD1A DUP4 PUSH2 0x98A JUMP JUMPDEST SWAP3 POP DUP3 PUSH2 0xD2A JUMPI PUSH2 0xD29 PUSH2 0xCD8 JUMP JUMPDEST JUMPDEST DUP3 DUP3 DIV SWAP1 POP SWAP3 SWAP2 POP POP JUMP JUMPDEST PUSH32 0x4E6F74206F776E65720000000000000000000000000000000000000000000000 PUSH0 DUP3 ADD MSTORE POP JUMP JUMPDEST PUSH0 PUSH2 0xD69 PUSH1 0x9 DUP4 PUSH2 0xA87 JUMP JUMPDEST SWAP2 POP PUSH2 0xD74 DUP3 PUSH2 0xD35 JUMP JUMPDEST PUSH1 0x20 DUP3 ADD SWAP1 POP SWAP2 SWAP1 POP JUMP JUMPDEST PUSH0 PUSH1 0x20 DUP3 ADD SWAP1 POP DUP2 DUP2 SUB PUSH0 DUP4 ADD MSTORE PUSH2 0xD96 DUP2 PUSH2 0xD5D JUMP JUMPDEST SWAP1 POP SWAP2 SWAP1 POP JUMP JUMPDEST PUSH32 0x456D707479000000000000000000000000000000000000000000000000000000 PUSH0 DUP3 ADD MSTORE POP JUMP JUMPDEST PUSH0 PUSH2 0xDD1 PUSH1 0x5 DUP4 PUSH2 0xA87 JUMP JUMPDEST SWAP2 POP PUSH2 0xDDC DUP3 PUSH2 0xD9D JUMP JUMPDEST PUSH1 0x20 DUP3 ADD SWAP1 POP SWAP2 SWAP1 POP JUMP JUMPDEST PUSH0 PUSH1 0x20 DUP3 ADD SWAP1 POP DUP2 DUP2 SUB PUSH0 DUP4 ADD MSTORE PUSH2 0xDFE DUP2 PUSH2 0xDC5 JUMP JUMPDEST SWAP1 POP SWAP2 SWAP1 POP JUMP INVALID LOG2 PUSH5 0x6970667358 0x22 SLT KECCAK256 0xC0 SGT STATICCALL SWAP14 PUSH24 0xE685176776985B71E3FFEEF6C3291C4E5B91FE9C9B9BC21B 0x4F 0xD7 0xF9 PUSH5 0x736F6C6343 STOP ADDMOD EQ STOP CALLER "},"methodIdentifiers":{"getBalance()":"12065fe0","getParticipantCount()":"ad605729","owner()":"8da5cb5b","ownerWithdrawAll()":"e0d5af94","participantList(uint256)":"0e6fdaa1","participants(address)":"09e69ede","participate()":"d11711a2","rewardRate()":"7b0a47ee","totalDeposited()":"ff50abdc","withdraw()":"3ccfd60b"}}}}}