{"project/contracts/NormalStaking.sol":{"NormalStaking":{"abi":[{"inputs":[],"stateMutability":"payable","type":"constructor"},{"anonymous":false,"inputs":[{"indexed":false,"internalType":"uint256","name":"amount","type":"uint256"},{"indexed":false,"internalType":"uint256","name":"blockNumber","type":"uint256"}],"name":"RewardPoolFunded","type":"event"},{"anonymous":false,"inputs":[{"indexed":true,"internalType":"address","name":"user","type":"address"},{"indexed":false,"internalType":"uint256","name":"amount","type":"uint256"},{"indexed":false,"internalType":"uint256","name":"blockNumber","type":"uint256"}],"name":"Staked","type":"event"},{"anonymous":false,"inputs":[{"indexed":true,"internalType":"address","name":"user","type":"address"},{"indexed":false,"internalType":"uint256","name":"principal","type":"uint256"},{"indexed":false,"internalType":"uint256","name":"reward","type":"uint256"},{"indexed":false,"internalType":"uint256","name":"blockNumber","type":"uint256"}],"name":"Unstaked","type":"event"},{"inputs":[],"name":"annualRate","outputs":[{"internalType":"uint256","name":"","type":"uint256"}],"stateMutability":"view","type":"function"},{"inputs":[],"name":"blocksPerYear","outputs":[{"internalType":"uint256","name":"","type":"uint256"}],"stateMutability":"view","type":"function"},{"inputs":[],"name":"fundRewardPool","outputs":[],"stateMutability":"payable","type":"function"},{"inputs":[],"name":"getBalance","outputs":[{"internalType":"uint256","name":"","type":"uint256"}],"stateMutability":"view","type":"function"},{"inputs":[],"name":"getStakerCount","outputs":[{"internalType":"uint256","name":"","type":"uint256"}],"stateMutability":"view","type":"function"},{"inputs":[],"name":"owner","outputs":[{"internalType":"address","name":"","type":"address"}],"stateMutability":"view","type":"function"},{"inputs":[],"name":"rewardPool","outputs":[{"internalType":"uint256","name":"","type":"uint256"}],"stateMutability":"view","type":"function"},{"inputs":[],"name":"stake","outputs":[],"stateMutability":"payable","type":"function"},{"inputs":[{"internalType":"uint256","name":"","type":"uint256"}],"name":"stakerList","outputs":[{"internalType":"address","name":"","type":"address"}],"stateMutability":"view","type":"function"},{"inputs":[{"internalType":"address","name":"","type":"address"}],"name":"stakes","outputs":[{"internalType":"uint256","name":"amount","type":"uint256"},{"internalType":"uint256","name":"stakedAt","type":"uint256"},{"internalType":"bool","name":"exists","type":"bool"}],"stateMutability":"view","type":"function"},{"inputs":[],"name":"totalStaked","outputs":[{"internalType":"uint256","name":"","type":"uint256"}],"stateMutability":"view","type":"function"},{"inputs":[],"name":"unstake","outputs":[],"stateMutability":"nonpayable","type":"function"}],"evm":{"bytecode":{"linkReferences":{},"object":"6080604052600a6005556064600655335f806101000a81548173ffffffffffffffffffffffffffffffffffffffff021916908373ffffffffffffffffffffffffffffffffffffffff160217905550346003819055507f5451f0d28a59c1c16a9d7cc5017150d585749eb225366037423f94b85ad94ea734436040516100859291906100aa565b60405180910390a16100d1565b5f819050919050565b6100a481610092565b82525050565b5f6040820190506100bd5f83018561009b565b6100ca602083018461009b565b9392505050565b610e4d806100de5f395ff3fe6080604052600436106100a6575f3560e01c80633a4b66f1116100635780633a4b66f11461019857806366666aa9146101a2578063817b1cd2146101cc5780638da5cb5b146101f6578063a385fb9614610220578063c0f9b0fb1461024a576100a6565b806312065fe0146100aa5780631319649d146100d457806316934fc4146100fe578063208283391461013c5780632def662014610146578063348e50c61461015c575b5f80fd5b3480156100b5575f80fd5b506100be610274565b6040516100cb91906108c3565b60405180910390f35b3480156100df575f80fd5b506100e861027b565b6040516100f591906108c3565b60405180910390f35b348015610109575f80fd5b50610124600480360381019061011f919061093a565b610287565b6040516101339392919061097f565b60405180910390f35b6101446102b9565b005b348015610151575f80fd5b5061015a610399565b005b348015610167575f80fd5b50610182600480360381019061017d91906109de565b6105c4565b60405161018f9190610a18565b60405180910390f35b6101a06105ff565b005b3480156101ad575f80fd5b506101b6610870565b6040516101c391906108c3565b60405180910390f35b3480156101d7575f80fd5b506101e0610876565b6040516101ed91906108c3565b60405180910390f35b348015610201575f80fd5b5061020a61087c565b6040516102179190610a18565b60405180910390f35b34801561022b575f80fd5b5061023461089f565b60405161024191906108c3565b60405180910390f35b348015610255575f80fd5b5061025e6108a5565b60405161026b91906108c3565b60405180910390f35b5f47905090565b5f600280549050905090565b6001602052805f5260405f205f91509050805f015490806001015490806002015f9054906101000a900460ff16905083565b5f8054906101000a900473ffffffffffffffffffffffffffffffffffffffff1673ffffffffffffffffffffffffffffffffffffffff163373ffffffffffffffffffffffffffffffffffffffff1614610346576040517f08c379a000000000000000000000000000000000000000000000000000000000815260040161033d90610a8b565b60405180910390fd5b3460035f8282546103579190610ad6565b925050819055507f5451f0d28a59c1c16a9d7cc5017150d585749eb225366037423f94b85ad94ea7344360405161038f929190610b09565b60405180910390a1565b5f60015f3373ffffffffffffffffffffffffffffffffffffffff1673ffffffffffffffffffffffffffffffffffffffff1681526020019081526020015f2090505f815f01541161041e576040517f08c379a000000000000000000000000000000000000000000000000000000000815260040161041590610b7a565b60405180910390fd5b5f81600101544361042f9190610b98565b90505f60065460646104419190610bcb565b82600554855f01546104539190610bcb565b61045d9190610bcb565b6104679190610c39565b90506003548111156104795760035490505b5f835f015490505f845f01819055508060045f8282546104999190610b98565b925050819055508160035f8282546104b19190610b98565b925050819055505f3373ffffffffffffffffffffffffffffffffffffffff1683836104dc9190610ad6565b6040516104e890610c96565b5f6040518083038185875af1925050503d805f8114610522576040519150601f19603f3d011682016040523d82523d5f602084013e610527565b606091505b505090508061056b576040517f08c379a000000000000000000000000000000000000000000000000000000000815260040161056290610cf4565b60405180910390fd5b3373ffffffffffffffffffffffffffffffffffffffff167f204fccf0d92ed8d48f204adb39b2e81e92bad0dedb93f5716ca9478cfb57de008385436040516105b593929190610d12565b60405180910390a25050505050565b600281815481106105d3575f80fd5b905f5260205f20015f915054906101000a900473ffffffffffffffffffffffffffffffffffffffff1681565b5f3411610641576040517f08c379a000000000000000000000000000000000000000000000000000000000815260040161063890610d91565b60405180910390fd5b60015f3373ffffffffffffffffffffffffffffffffffffffff1673ffffffffffffffffffffffffffffffffffffffff1681526020019081526020015f206002015f9054906101000a900460ff1615806106d857505f60015f3373ffffffffffffffffffffffffffffffffffffffff1673ffffffffffffffffffffffffffffffffffffffff1681526020019081526020015f205f0154145b610717576040517f08c379a000000000000000000000000000000000000000000000000000000000815260040161070e90610df9565b60405180910390fd5b60405180606001604052803481526020014381526020016001151581525060015f3373ffffffffffffffffffffffffffffffffffffffff1673ffffffffffffffffffffffffffffffffffffffff1681526020019081526020015f205f820151815f0155602082015181600101556040820151816002015f6101000a81548160ff021916908315150217905550905050600233908060018154018082558091505060019003905f5260205f20015f9091909190916101000a81548173ffffffffffffffffffffffffffffffffffffffff021916908373ffffffffffffffffffffffffffffffffffffffff1602179055503460045f8282546108179190610ad6565b925050819055503373ffffffffffffffffffffffffffffffffffffffff167f1449c6dd7851abc30abf37f57715f492010519147cc2652fbc38202c18a6ee903443604051610866929190610b09565b60405180910390a2565b60035481565b60045481565b5f8054906101000a900473ffffffffffffffffffffffffffffffffffffffff1681565b60065481565b60055481565b5f819050919050565b6108bd816108ab565b82525050565b5f6020820190506108d65f8301846108b4565b92915050565b5f80fd5b5f73ffffffffffffffffffffffffffffffffffffffff82169050919050565b5f610909826108e0565b9050919050565b610919816108ff565b8114610923575f80fd5b50565b5f8135905061093481610910565b92915050565b5f6020828403121561094f5761094e6108dc565b5b5f61095c84828501610926565b91505092915050565b5f8115159050919050565b61097981610965565b82525050565b5f6060820190506109925f8301866108b4565b61099f60208301856108b4565b6109ac6040830184610970565b949350505050565b6109bd816108ab565b81146109c7575f80fd5b50565b5f813590506109d8816109b4565b92915050565b5f602082840312156109f3576109f26108dc565b5b5f610a00848285016109ca565b91505092915050565b610a12816108ff565b82525050565b5f602082019050610a2b5f830184610a09565b92915050565b5f82825260208201905092915050565b7f4e6f74206f776e657200000000000000000000000000000000000000000000005f82015250565b5f610a75600983610a31565b9150610a8082610a41565b602082019050919050565b5f6020820190508181035f830152610aa281610a69565b9050919050565b7f4e487b71000000000000000000000000000000000000000000000000000000005f52601160045260245ffd5b5f610ae0826108ab565b9150610aeb836108ab565b9250828201905080821115610b0357610b02610aa9565b5b92915050565b5f604082019050610b1c5f8301856108b4565b610b2960208301846108b4565b9392505050565b7f4e6f74207374616b696e670000000000000000000000000000000000000000005f82015250565b5f610b64600b83610a31565b9150610b6f82610b30565b602082019050919050565b5f6020820190508181035f830152610b9181610b58565b9050919050565b5f610ba2826108ab565b9150610bad836108ab565b9250828203905081811115610bc557610bc4610aa9565b5b92915050565b5f610bd5826108ab565b9150610be0836108ab565b9250828202610bee816108ab565b91508282048414831517610c0557610c04610aa9565b5b5092915050565b7f4e487b71000000000000000000000000000000000000000000000000000000005f52601260045260245ffd5b5f610c43826108ab565b9150610c4e836108ab565b925082610c5e57610c5d610c0c565b5b828204905092915050565b5f81905092915050565b50565b5f610c815f83610c69565b9150610c8c82610c73565b5f82019050919050565b5f610ca082610c76565b9150819050919050565b7f5472616e73666572206661696c656400000000000000000000000000000000005f82015250565b5f610cde600f83610a31565b9150610ce982610caa565b602082019050919050565b5f6020820190508181035f830152610d0b81610cd2565b9050919050565b5f606082019050610d255f8301866108b4565b610d3260208301856108b4565b610d3f60408301846108b4565b949350505050565b7f53656e64204554480000000000000000000000000000000000000000000000005f82015250565b5f610d7b600883610a31565b9150610d8682610d47565b602082019050919050565b5f6020820190508181035f830152610da881610d6f565b9050919050565b7f416c7265616479207374616b696e67202d20756e7374616b65206669727374005f82015250565b5f610de3601f83610a31565b9150610dee82610daf565b602082019050919050565b5f6020820190508181035f830152610e1081610dd7565b905091905056fea264697066735822122090c85679709a0501b26e497dd5e9779ff50a46a4c15c1ed8821a8bf18366064164736f6c63430008140033","opcodes":"PUSH1 0x80 PUSH1 0x40 MSTORE PUSH1 0xA PUSH1 0x5 SSTORE PUSH1 0x64 PUSH1 0x6 SSTORE CALLER PUSH0 DUP1 PUSH2 0x100 EXP DUP2 SLOAD DUP2 PUSH20 0xFFFFFFFFFFFFFFFFFFFFFFFFFFFFFFFFFFFFFFFF MUL NOT AND SWAP1 DUP4 PUSH20 0xFFFFFFFFFFFFFFFFFFFFFFFFFFFFFFFFFFFFFFFF AND MUL OR SWAP1 SSTORE POP CALLVALUE PUSH1 0x3 DUP2 SWAP1 SSTORE POP PUSH32 0x5451F0D28A59C1C16A9D7CC5017150D585749EB225366037423F94B85AD94EA7 CALLVALUE NUMBER PUSH1 0x40 MLOAD PUSH2 0x85 SWAP3 SWAP2 SWAP1 PUSH2 0xAA JUMP JUMPDEST PUSH1 0x40 MLOAD DUP1 SWAP2 SUB SWAP1 LOG1 PUSH2 0xD1 JUMP JUMPDEST PUSH0 DUP2 SWAP1 POP SWAP2 SWAP1 POP JUMP JUMPDEST PUSH2 0xA4 DUP2 PUSH2 0x92 JUMP JUMPDEST DUP3 MSTORE POP POP JUMP JUMPDEST PUSH0 PUSH1 0x40 DUP3 ADD SWAP1 POP PUSH2 0xBD PUSH0 DUP4 ADD DUP6 PUSH2 0x9B JUMP JUMPDEST PUSH2 0xCA PUSH1 0x20 DUP4 ADD DUP5 PUSH2 0x9B JUMP JUMPDEST SWAP4 SWAP3 POP POP POP JUMP JUMPDEST PUSH2 0xE4D DUP1 PUSH2 0xDE PUSH0 CODECOPY PUSH0 RETURN INVALID PUSH1 0x80 PUSH1 0x40 MSTORE PUSH1 0x4 CALLDATASIZE LT PUSH2 0xA6 JUMPI PUSH0 CALLDATALOAD PUSH1 0xE0 SHR DUP1 PUSH4 0x3A4B66F1 GT PUSH2 0x63 JUMPI DUP1 PUSH4 0x3A4B66F1 EQ PUSH2 0x198 JUMPI DUP1 PUSH4 0x66666AA9 EQ PUSH2 0x1A2 JUMPI DUP1 PUSH4 0x817B1CD2 EQ PUSH2 0x1CC JUMPI DUP1 PUSH4 0x8DA5CB5B EQ PUSH2 0x1F6 JUMPI DUP1 PUSH4 0xA385FB96 EQ PUSH2 0x220 JUMPI DUP1 PUSH4 0xC0F9B0FB EQ PUSH2 0x24A JUMPI PUSH2 0xA6 JUMP JUMPDEST DUP1 PUSH4 0x12065FE0 EQ PUSH2 0xAA JUMPI DUP1 PUSH4 0x1319649D EQ PUSH2 0xD4 JUMPI DUP1 PUSH4 0x16934FC4 EQ PUSH2 0xFE JUMPI DUP1 PUSH4 0x20828339 EQ PUSH2 0x13C JUMPI DUP1 PUSH4 0x2DEF6620 EQ PUSH2 0x146 JUMPI DUP1 PUSH4 0x348E50C6 EQ PUSH2 0x15C JUMPI JUMPDEST PUSH0 DUP1 REVERT JUMPDEST CALLVALUE DUP1 ISZERO PUSH2 0xB5 JUMPI PUSH0 DUP1 REVERT JUMPDEST POP PUSH2 0xBE PUSH2 0x274 JUMP JUMPDEST PUSH1 0x40 MLOAD PUSH2 0xCB SWAP2 SWAP1 PUSH2 0x8C3 JUMP JUMPDEST PUSH1 0x40 MLOAD DUP1 SWAP2 SUB SWAP1 RETURN JUMPDEST CALLVALUE DUP1 ISZERO PUSH2 0xDF JUMPI PUSH0 DUP1 REVERT JUMPDEST POP PUSH2 0xE8 PUSH2 0x27B JUMP JUMPDEST PUSH1 0x40 MLOAD PUSH2 0xF5 SWAP2 SWAP1 PUSH2 0x8C3 JUMP JUMPDEST PUSH1 0x40 MLOAD DUP1 SWAP2 SUB SWAP1 RETURN JUMPDEST CALLVALUE DUP1 ISZERO PUSH2 0x109 JUMPI PUSH0 DUP1 REVERT JUMPDEST POP PUSH2 0x124 PUSH1 0x4 DUP1 CALLDATASIZE SUB DUP2 ADD SWAP1 PUSH2 0x11F SWAP2 SWAP1 PUSH2 0x93A JUMP JUMPDEST PUSH2 0x287 JUMP JUMPDEST PUSH1 0x40 MLOAD PUSH2 0x133 SWAP4 SWAP3 SWAP2 SWAP1 PUSH2 0x97F JUMP JUMPDEST PUSH1 0x40 MLOAD DUP1 SWAP2 SUB SWAP1 RETURN JUMPDEST PUSH2 0x144 PUSH2 0x2B9 JUMP JUMPDEST STOP JUMPDEST CALLVALUE DUP1 ISZERO PUSH2 0x151 JUMPI PUSH0 DUP1 REVERT JUMPDEST POP PUSH2 0x15A PUSH2 0x399 JUMP JUMPDEST STOP JUMPDEST CALLVALUE DUP1 ISZERO PUSH2 0x167 JUMPI PUSH0 DUP1 REVERT JUMPDEST POP PUSH2 0x182 PUSH1 0x4 DUP1 CALLDATASIZE SUB DUP2 ADD SWAP1 PUSH2 0x17D SWAP2 SWAP1 PUSH2 0x9DE JUMP JUMPDEST PUSH2 0x5C4 JUMP JUMPDEST PUSH1 0x40 MLOAD PUSH2 0x18F SWAP2 SWAP1 PUSH2 0xA18 JUMP JUMPDEST PUSH1 0x40 MLOAD DUP1 SWAP2 SUB SWAP1 RETURN JUMPDEST PUSH2 0x1A0 PUSH2 0x5FF JUMP JUMPDEST STOP JUMPDEST CALLVALUE DUP1 ISZERO PUSH2 0x1AD JUMPI PUSH0 DUP1 REVERT JUMPDEST POP PUSH2 0x1B6 PUSH2 0x870 JUMP JUMPDEST PUSH1 0x40 MLOAD PUSH2 0x1C3 SWAP2 SWAP1 PUSH2 0x8C3 JUMP JUMPDEST PUSH1 0x40 MLOAD DUP1 SWAP2 SUB SWAP1 RETURN JUMPDEST CALLVALUE DUP1 ISZERO PUSH2 0x1D7 JUMPI PUSH0 DUP1 REVERT JUMPDEST POP PUSH2 0x1E0 PUSH2 0x876 JUMP JUMPDEST PUSH1 0x40 MLOAD PUSH2 0x1ED SWAP2 SWAP1 PUSH2 0x8C3 JUMP JUMPDEST PUSH1 0x40 MLOAD DUP1 SWAP2 SUB SWAP1 RETURN JUMPDEST CALLVALUE DUP1 ISZERO PUSH2 0x201 JUMPI PUSH0 DUP1 REVERT JUMPDEST POP PUSH2 0x20A PUSH2 0x87C JUMP JUMPDEST PUSH1 0x40 MLOAD PUSH2 0x217 SWAP2 SWAP1 PUSH2 0xA18 JUMP JUMPDEST PUSH1 0x40 MLOAD DUP1 SWAP2 SUB SWAP1 RETURN JUMPDEST CALLVALUE DUP1 ISZERO PUSH2 0x22B JUMPI PUSH0 DUP1 REVERT JUMPDEST POP PUSH2 0x234 PUSH2 0x89F JUMP JUMPDEST PUSH1 0x40 MLOAD PUSH2 0x241 SWAP2 SWAP1 PUSH2 0x8C3 JUMP JUMPDEST PUSH1 0x40 MLOAD DUP1 SWAP2 SUB SWAP1 RETURN JUMPDEST CALLVALUE DUP1 ISZERO PUSH2 0x255 JUMPI PUSH0 DUP1 REVERT JUMPDEST POP PUSH2 0x25E PUSH2 0x8A5 JUMP JUMPDEST PUSH1 0x40 MLOAD PUSH2 0x26B SWAP2 SWAP1 PUSH2 0x8C3 JUMP JUMPDEST PUSH1 0x40 MLOAD DUP1 SWAP2 SUB SWAP1 RETURN JUMPDEST PUSH0 SELFBALANCE SWAP1 POP SWAP1 JUMP JUMPDEST PUSH0 PUSH1 0x2 DUP1 SLOAD SWAP1 POP SWAP1 POP SWAP1 JUMP JUMPDEST PUSH1 0x1 PUSH1 0x20 MSTORE DUP1 PUSH0 MSTORE PUSH1 0x40 PUSH0 KECCAK256 PUSH0 SWAP2 POP SWAP1 POP DUP1 PUSH0 ADD SLOAD SWAP1 DUP1 PUSH1 0x1 ADD SLOAD SWAP1 DUP1 PUSH1 0x2 ADD PUSH0 SWAP1 SLOAD SWAP1 PUSH2 0x100 EXP SWAP1 DIV PUSH1 0xFF AND SWAP1 POP DUP4 JUMP JUMPDEST PUSH0 DUP1 SLOAD SWAP1 PUSH2 0x100 EXP SWAP1 DIV PUSH20 0xFFFFFFFFFFFFFFFFFFFFFFFFFFFFFFFFFFFFFFFF AND PUSH20 0xFFFFFFFFFFFFFFFFFFFFFFFFFFFFFFFFFFFFFFFF AND CALLER PUSH20 0xFFFFFFFFFFFFFFFFFFFFFFFFFFFFFFFFFFFFFFFF AND EQ PUSH2 0x346 JUMPI PUSH1 0x40 MLOAD PUSH32 0x8C379A000000000000000000000000000000000000000000000000000000000 DUP2 MSTORE PUSH1 0x4 ADD PUSH2 0x33D SWAP1 PUSH2 0xA8B JUMP JUMPDEST PUSH1 0x40 MLOAD DUP1 SWAP2 SUB SWAP1 REVERT JUMPDEST CALLVALUE PUSH1 0x3 PUSH0 DUP3 DUP3 SLOAD PUSH2 0x357 SWAP2 SWAP1 PUSH2 0xAD6 JUMP JUMPDEST SWAP3 POP POP DUP2 SWAP1 SSTORE POP PUSH32 0x5451F0D28A59C1C16A9D7CC5017150D585749EB225366037423F94B85AD94EA7 CALLVALUE NUMBER PUSH1 0x40 MLOAD PUSH2 0x38F SWAP3 SWAP2 SWAP1 PUSH2 0xB09 JUMP JUMPDEST PUSH1 0x40 MLOAD DUP1 SWAP2 SUB SWAP1 LOG1 JUMP JUMPDEST PUSH0 PUSH1 0x1 PUSH0 CALLER PUSH20 0xFFFFFFFFFFFFFFFFFFFFFFFFFFFFFFFFFFFFFFFF AND PUSH20 0xFFFFFFFFFFFFFFFFFFFFFFFFFFFFFFFFFFFFFFFF AND DUP2 MSTORE PUSH1 0x20 ADD SWAP1 DUP2 MSTORE PUSH1 0x20 ADD PUSH0 KECCAK256 SWAP1 POP PUSH0 DUP2 PUSH0 ADD SLOAD GT PUSH2 0x41E JUMPI PUSH1 0x40 MLOAD PUSH32 0x8C379A000000000000000000000000000000000000000000000000000000000 DUP2 MSTORE PUSH1 0x4 ADD PUSH2 0x415 SWAP1 PUSH2 0xB7A JUMP JUMPDEST PUSH1 0x40 MLOAD DUP1 SWAP2 SUB SWAP1 REVERT JUMPDEST PUSH0 DUP2 PUSH1 0x1 ADD SLOAD NUMBER PUSH2 0x42F SWAP2 SWAP1 PUSH2 0xB98 JUMP JUMPDEST SWAP1 POP PUSH0 PUSH1 0x6 SLOAD PUSH1 0x64 PUSH2 0x441 SWAP2 SWAP1 PUSH2 0xBCB JUMP JUMPDEST DUP3 PUSH1 0x5 SLOAD DUP6 PUSH0 ADD SLOAD PUSH2 0x453 SWAP2 SWAP1 PUSH2 0xBCB JUMP JUMPDEST PUSH2 0x45D SWAP2 SWAP1 PUSH2 0xBCB JUMP JUMPDEST PUSH2 0x467 SWAP2 SWAP1 PUSH2 0xC39 JUMP JUMPDEST SWAP1 POP PUSH1 0x3 SLOAD DUP2 GT ISZERO PUSH2 0x479 JUMPI PUSH1 0x3 SLOAD SWAP1 POP JUMPDEST PUSH0 DUP4 PUSH0 ADD SLOAD SWAP1 POP PUSH0 DUP5 PUSH0 ADD DUP2 SWAP1 SSTORE POP DUP1 PUSH1 0x4 PUSH0 DUP3 DUP3 SLOAD PUSH2 0x499 SWAP2 SWAP1 PUSH2 0xB98 JUMP JUMPDEST SWAP3 POP POP DUP2 SWAP1 SSTORE POP DUP2 PUSH1 0x3 PUSH0 DUP3 DUP3 SLOAD PUSH2 0x4B1 SWAP2 SWAP1 PUSH2 0xB98 JUMP JUMPDEST SWAP3 POP POP DUP2 SWAP1 SSTORE POP PUSH0 CALLER PUSH20 0xFFFFFFFFFFFFFFFFFFFFFFFFFFFFFFFFFFFFFFFF AND DUP4 DUP4 PUSH2 0x4DC SWAP2 SWAP1 PUSH2 0xAD6 JUMP JUMPDEST PUSH1 0x40 MLOAD PUSH2 0x4E8 SWAP1 PUSH2 0xC96 JUMP JUMPDEST PUSH0 PUSH1 0x40 MLOAD DUP1 DUP4 SUB DUP2 DUP6 DUP8 GAS CALL SWAP3 POP POP POP RETURNDATASIZE DUP1 PUSH0 DUP2 EQ PUSH2 0x522 JUMPI PUSH1 0x40 MLOAD SWAP2 POP PUSH1 0x1F NOT PUSH1 0x3F RETURNDATASIZE ADD AND DUP3 ADD PUSH1 0x40 MSTORE RETURNDATASIZE DUP3 MSTORE RETURNDATASIZE PUSH0 PUSH1 0x20 DUP5 ADD RETURNDATACOPY PUSH2 0x527 JUMP JUMPDEST PUSH1 0x60 SWAP2 POP JUMPDEST POP POP SWAP1 POP DUP1 PUSH2 0x56B JUMPI PUSH1 0x40 MLOAD PUSH32 0x8C379A000000000000000000000000000000000000000000000000000000000 DUP2 MSTORE PUSH1 0x4 ADD PUSH2 0x562 SWAP1 PUSH2 0xCF4 JUMP JUMPDEST PUSH1 0x40 MLOAD DUP1 SWAP2 SUB SWAP1 REVERT JUMPDEST CALLER PUSH20 0xFFFFFFFFFFFFFFFFFFFFFFFFFFFFFFFFFFFFFFFF AND PUSH32 0x204FCCF0D92ED8D48F204ADB39B2E81E92BAD0DEDB93F5716CA9478CFB57DE00 DUP4 DUP6 NUMBER PUSH1 0x40 MLOAD PUSH2 0x5B5 SWAP4 SWAP3 SWAP2 SWAP1 PUSH2 0xD12 JUMP JUMPDEST PUSH1 0x40 MLOAD DUP1 SWAP2 SUB SWAP1 LOG2 POP POP POP POP POP JUMP JUMPDEST PUSH1 0x2 DUP2 DUP2 SLOAD DUP2 LT PUSH2 0x5D3 JUMPI PUSH0 DUP1 REVERT JUMPDEST SWAP1 PUSH0 MSTORE PUSH1 0x20 PUSH0 KECCAK256 ADD PUSH0 SWAP2 POP SLOAD SWAP1 PUSH2 0x100 EXP SWAP1 DIV PUSH20 0xFFFFFFFFFFFFFFFFFFFFFFFFFFFFFFFFFFFFFFFF AND DUP2 JUMP JUMPDEST PUSH0 CALLVALUE GT PUSH2 0x641 JUMPI PUSH1 0x40 MLOAD PUSH32 0x8C379A000000000000000000000000000000000000000000000000000000000 DUP2 MSTORE PUSH1 0x4 ADD PUSH2 0x638 SWAP1 PUSH2 0xD91 JUMP JUMPDEST PUSH1 0x40 MLOAD DUP1 SWAP2 SUB SWAP1 REVERT JUMPDEST PUSH1 0x1 PUSH0 CALLER PUSH20 0xFFFFFFFFFFFFFFFFFFFFFFFFFFFFFFFFFFFFFFFF AND PUSH20 0xFFFFFFFFFFFFFFFFFFFFFFFFFFFFFFFFFFFFFFFF AND DUP2 MSTORE PUSH1 0x20 ADD SWAP1 DUP2 MSTORE PUSH1 0x20 ADD PUSH0 KECCAK256 PUSH1 0x2 ADD PUSH0 SWAP1 SLOAD SWAP1 PUSH2 0x100 EXP SWAP1 DIV PUSH1 0xFF AND ISZERO DUP1 PUSH2 0x6D8 JUMPI POP PUSH0 PUSH1 0x1 PUSH0 CALLER PUSH20 0xFFFFFFFFFFFFFFFFFFFFFFFFFFFFFFFFFFFFFFFF AND PUSH20 0xFFFFFFFFFFFFFFFFFFFFFFFFFFFFFFFFFFFFFFFF AND DUP2 MSTORE PUSH1 0x20 ADD SWAP1 DUP2 MSTORE PUSH1 0x20 ADD PUSH0 KECCAK256 PUSH0 ADD SLOAD EQ JUMPDEST PUSH2 0x717 JUMPI PUSH1 0x40 MLOAD PUSH32 0x8C379A000000000000000000000000000000000000000000000000000000000 DUP2 MSTORE PUSH1 0x4 ADD PUSH2 0x70E SWAP1 PUSH2 0xDF9 JUMP JUMPDEST PUSH1 0x40 MLOAD DUP1 SWAP2 SUB SWAP1 REVERT JUMPDEST PUSH1 0x40 MLOAD DUP1 PUSH1 0x60 ADD PUSH1 0x40 MSTORE DUP1 CALLVALUE DUP2 MSTORE PUSH1 0x20 ADD NUMBER DUP2 MSTORE PUSH1 0x20 ADD PUSH1 0x1 ISZERO ISZERO DUP2 MSTORE POP PUSH1 0x1 PUSH0 CALLER PUSH20 0xFFFFFFFFFFFFFFFFFFFFFFFFFFFFFFFFFFFFFFFF AND PUSH20 0xFFFFFFFFFFFFFFFFFFFFFFFFFFFFFFFFFFFFFFFF AND DUP2 MSTORE PUSH1 0x20 ADD SWAP1 DUP2 MSTORE PUSH1 0x20 ADD PUSH0 KECCAK256 PUSH0 DUP3 ADD MLOAD DUP2 PUSH0 ADD SSTORE PUSH1 0x20 DUP3 ADD MLOAD DUP2 PUSH1 0x1 ADD SSTORE PUSH1 0x40 DUP3 ADD MLOAD DUP2 PUSH1 0x2 ADD PUSH0 PUSH2 0x100 EXP DUP2 SLOAD DUP2 PUSH1 0xFF MUL NOT AND SWAP1 DUP4 ISZERO ISZERO MUL OR SWAP1 SSTORE POP SWAP1 POP POP PUSH1 0x2 CALLER SWAP1 DUP1 PUSH1 0x1 DUP2 SLOAD ADD DUP1 DUP3 SSTORE DUP1 SWAP2 POP POP PUSH1 0x1 SWAP1 SUB SWAP1 PUSH0 MSTORE PUSH1 0x20 PUSH0 KECCAK256 ADD PUSH0 SWAP1 SWAP2 SWAP1 SWAP2 SWAP1 SWAP2 PUSH2 0x100 EXP DUP2 SLOAD DUP2 PUSH20 0xFFFFFFFFFFFFFFFFFFFFFFFFFFFFFFFFFFFFFFFF MUL NOT AND SWAP1 DUP4 PUSH20 0xFFFFFFFFFFFFFFFFFFFFFFFFFFFFFFFFFFFFFFFF AND MUL OR SWAP1 SSTORE POP CALLVALUE PUSH1 0x4 PUSH0 DUP3 DUP3 SLOAD PUSH2 0x817 SWAP2 SWAP1 PUSH2 0xAD6 JUMP JUMPDEST SWAP3 POP POP DUP2 SWAP1 SSTORE POP CALLER PUSH20 0xFFFFFFFFFFFFFFFFFFFFFFFFFFFFFFFFFFFFFFFF AND PUSH32 0x1449C6DD7851ABC30ABF37F57715F492010519147CC2652FBC38202C18A6EE90 CALLVALUE NUMBER PUSH1 0x40 MLOAD PUSH2 0x866 SWAP3 SWAP2 SWAP1 PUSH2 0xB09 JUMP JUMPDEST PUSH1 0x40 MLOAD DUP1 SWAP2 SUB SWAP1 LOG2 JUMP JUMPDEST PUSH1 0x3 SLOAD DUP2 JUMP JUMPDEST PUSH1 0x4 SLOAD DUP2 JUMP JUMPDEST PUSH0 DUP1 SLOAD SWAP1 PUSH2 0x100 EXP SWAP1 DIV PUSH20 0xFFFFFFFFFFFFFFFFFFFFFFFFFFFFFFFFFFFFFFFF AND DUP2 JUMP JUMPDEST PUSH1 0x6 SLOAD DUP2 JUMP JUMPDEST PUSH1 0x5 SLOAD DUP2 JUMP JUMPDEST PUSH0 DUP2 SWAP1 POP SWAP2 SWAP1 POP JUMP JUMPDEST PUSH2 0x8BD DUP2 PUSH2 0x8AB JUMP JUMPDEST DUP3 MSTORE POP POP JUMP JUMPDEST PUSH0 PUSH1 0x20 DUP3 ADD SWAP1 POP PUSH2 0x8D6 PUSH0 DUP4 ADD DUP5 PUSH2 0x8B4 JUMP JUMPDEST SWAP3 SWAP2 POP POP JUMP JUMPDEST PUSH0 DUP1 REVERT JUMPDEST PUSH0 PUSH20 0xFFFFFFFFFFFFFFFFFFFFFFFFFFFFFFFFFFFFFFFF DUP3 AND SWAP1 POP SWAP2 SWAP1 POP JUMP JUMPDEST PUSH0 PUSH2 0x909 DUP3 PUSH2 0x8E0 JUMP JUMPDEST SWAP1 POP SWAP2 SWAP1 POP JUMP JUMPDEST PUSH2 0x919 DUP2 PUSH2 0x8FF JUMP JUMPDEST DUP2 EQ PUSH2 0x923 JUMPI PUSH0 DUP1 REVERT JUMPDEST POP JUMP JUMPDEST PUSH0 DUP2 CALLDATALOAD SWAP1 POP PUSH2 0x934 DUP2 PUSH2 0x910 JUMP JUMPDEST SWAP3 SWAP2 POP POP JUMP JUMPDEST PUSH0 PUSH1 0x20 DUP3 DUP5 SUB SLT ISZERO PUSH2 0x94F JUMPI PUSH2 0x94E PUSH2 0x8DC JUMP JUMPDEST JUMPDEST PUSH0 PUSH2 0x95C DUP5 DUP3 DUP6 ADD PUSH2 0x926 JUMP JUMPDEST SWAP2 POP POP SWAP3 SWAP2 POP POP JUMP JUMPDEST PUSH0 DUP2 ISZERO ISZERO SWAP1 POP SWAP2 SWAP1 POP JUMP JUMPDEST PUSH2 0x979 DUP2 PUSH2 0x965 JUMP JUMPDEST DUP3 MSTORE POP POP JUMP JUMPDEST PUSH0 PUSH1 0x60 DUP3 ADD SWAP1 POP PUSH2 0x992 PUSH0 DUP4 ADD DUP7 PUSH2 0x8B4 JUMP JUMPDEST PUSH2 0x99F PUSH1 0x20 DUP4 ADD DUP6 PUSH2 0x8B4 JUMP JUMPDEST PUSH2 0x9AC PUSH1 0x40 DUP4 ADD DUP5 PUSH2 0x970 JUMP JUMPDEST SWAP5 SWAP4 POP POP POP POP JUMP JUMPDEST PUSH2 0x9BD DUP2 PUSH2 0x8AB JUMP JUMPDEST DUP2 EQ PUSH2 0x9C7 JUMPI PUSH0 DUP1 REVERT JUMPDEST POP JUMP JUMPDEST PUSH0 DUP2 CALLDATALOAD SWAP1 POP PUSH2 0x9D8 DUP2 PUSH2 0x9B4 JUMP JUMPDEST SWAP3 SWAP2 POP POP JUMP JUMPDEST PUSH0 PUSH1 0x20 DUP3 DUP5 SUB SLT ISZERO PUSH2 0x9F3 JUMPI PUSH2 0x9F2 PUSH2 0x8DC JUMP JUMPDEST JUMPDEST PUSH0 PUSH2 0xA00 DUP5 DUP3 DUP6 ADD PUSH2 0x9CA JUMP JUMPDEST SWAP2 POP POP SWAP3 SWAP2 POP POP JUMP JUMPDEST PUSH2 0xA12 DUP2 PUSH2 0x8FF JUMP JUMPDEST DUP3 MSTORE POP POP JUMP JUMPDEST PUSH0 PUSH1 0x20 DUP3 ADD SWAP1 POP PUSH2 0xA2B PUSH0 DUP4 ADD DUP5 PUSH2 0xA09 JUMP JUMPDEST SWAP3 SWAP2 POP POP JUMP JUMPDEST PUSH0 DUP3 DUP3 MSTORE PUSH1 0x20 DUP3 ADD SWAP1 POP SWAP3 SWAP2 POP POP JUMP JUMPDEST PUSH32 0x4E6F74206F776E65720000000000000000000000000000000000000000000000 PUSH0 DUP3 ADD MSTORE POP JUMP JUMPDEST PUSH0 PUSH2 0xA75 PUSH1 0x9 DUP4 PUSH2 0xA31 JUMP JUMPDEST SWAP2 POP PUSH2 0xA80 DUP3 PUSH2 0xA41 JUMP JUMPDEST PUSH1 0x20 DUP3 ADD SWAP1 POP SWAP2 SWAP1 POP JUMP JUMPDEST PUSH0 PUSH1 0x20 DUP3 ADD SWAP1 POP DUP2 DUP2 SUB PUSH0 DUP4 ADD MSTORE PUSH2 0xAA2 DUP2 PUSH2 0xA69 JUMP JUMPDEST SWAP1 POP SWAP2 SWAP1 POP JUMP JUMPDEST PUSH32 0x4E487B7100000000000000000000000000000000000000000000000000000000 PUSH0 MSTORE PUSH1 0x11 PUSH1 0x4 MSTORE PUSH1 0x24 PUSH0 REVERT JUMPDEST PUSH0 PUSH2 0xAE0 DUP3 PUSH2 0x8AB JUMP JUMPDEST SWAP2 POP PUSH2 0xAEB DUP4 PUSH2 0x8AB JUMP JUMPDEST SWAP3 POP DUP3 DUP3 ADD SWAP1 POP DUP1 DUP3 GT ISZERO PUSH2 0xB03 JUMPI PUSH2 0xB02 PUSH2 0xAA9 JUMP JUMPDEST JUMPDEST SWAP3 SWAP2 POP POP JUMP JUMPDEST PUSH0 PUSH1 0x40 DUP3 ADD SWAP1 POP PUSH2 0xB1C PUSH0 DUP4 ADD DUP6 PUSH2 0x8B4 JUMP JUMPDEST PUSH2 0xB29 PUSH1 0x20 DUP4 ADD DUP5 PUSH2 0x8B4 JUMP JUMPDEST SWAP4 SWAP3 POP POP POP JUMP JUMPDEST PUSH32 0x4E6F74207374616B696E67000000000000000000000000000000000000000000 PUSH0 DUP3 ADD MSTORE POP JUMP JUMPDEST PUSH0 PUSH2 0xB64 PUSH1 0xB DUP4 PUSH2 0xA31 JUMP JUMPDEST SWAP2 POP PUSH2 0xB6F DUP3 PUSH2 0xB30 JUMP JUMPDEST PUSH1 0x20 DUP3 ADD SWAP1 POP SWAP2 SWAP1 POP JUMP JUMPDEST PUSH0 PUSH1 0x20 DUP3 ADD SWAP1 POP DUP2 DUP2 SUB PUSH0 DUP4 ADD MSTORE PUSH2 0xB91 DUP2 PUSH2 0xB58 JUMP JUMPDEST SWAP1 POP SWAP2 SWAP1 POP JUMP JUMPDEST PUSH0 PUSH2 0xBA2 DUP3 PUSH2 0x8AB JUMP JUMPDEST SWAP2 POP PUSH2 0xBAD DUP4 PUSH2 0x8AB JUMP JUMPDEST SWAP3 POP DUP3 DUP3 SUB SWAP1 POP DUP2 DUP2 GT ISZERO PUSH2 0xBC5 JUMPI PUSH2 0xBC4 PUSH2 0xAA9 JUMP JUMPDEST JUMPDEST SWAP3 SWAP2 POP POP JUMP JUMPDEST PUSH0 PUSH2 0xBD5 DUP3 PUSH2 0x8AB JUMP JUMPDEST SWAP2 POP PUSH2 0xBE0 DUP4 PUSH2 0x8AB JUMP JUMPDEST SWAP3 POP DUP3 DUP3 MUL PUSH2 0xBEE DUP2 PUSH2 0x8AB JUMP JUMPDEST SWAP2 POP DUP3 DUP3 DIV DUP5 EQ DUP4 ISZERO OR PUSH2 0xC05 JUMPI PUSH2 0xC04 PUSH2 0xAA9 JUMP JUMPDEST JUMPDEST POP SWAP3 SWAP2 POP POP JUMP JUMPDEST PUSH32 0x4E487B7100000000000000000000000000000000000000000000000000000000 PUSH0 MSTORE PUSH1 0x12 PUSH1 0x4 MSTORE PUSH1 0x24 PUSH0 REVERT JUMPDEST PUSH0 PUSH2 0xC43 DUP3 PUSH2 0x8AB JUMP JUMPDEST SWAP2 POP PUSH2 0xC4E DUP4 PUSH2 0x8AB JUMP JUMPDEST SWAP3 POP DUP3 PUSH2 0xC5E JUMPI PUSH2 0xC5D PUSH2 0xC0C JUMP JUMPDEST JUMPDEST DUP3 DUP3 DIV SWAP1 POP SWAP3 SWAP2 POP POP JUMP JUMPDEST PUSH0 DUP2 SWAP1 POP SWAP3 SWAP2 POP POP JUMP JUMPDEST POP JUMP JUMPDEST PUSH0 PUSH2 0xC81 PUSH0 DUP4 PUSH2 0xC69 JUMP JUMPDEST SWAP2 POP PUSH2 0xC8C DUP3 PUSH2 0xC73 JUMP JUMPDEST PUSH0 DUP3 ADD SWAP1 POP SWAP2 SWAP1 POP JUMP JUMPDEST PUSH0 PUSH2 0xCA0 DUP3 PUSH2 0xC76 JUMP JUMPDEST SWAP2 POP DUP2 SWAP1 POP SWAP2 SWAP1 POP JUMP JUMPDEST PUSH32 0x5472616E73666572206661696C65640000000000000000000000000000000000 PUSH0 DUP3 ADD MSTORE POP JUMP JUMPDEST PUSH0 PUSH2 0xCDE PUSH1 0xF DUP4 PUSH2 0xA31 JUMP JUMPDEST SWAP2 POP PUSH2 0xCE9 DUP3 PUSH2 0xCAA JUMP JUMPDEST PUSH1 0x20 DUP3 ADD SWAP1 POP SWAP2 SWAP1 POP JUMP JUMPDEST PUSH0 PUSH1 0x20 DUP3 ADD SWAP1 POP DUP2 DUP2 SUB PUSH0 DUP4 ADD MSTORE PUSH2 0xD0B DUP2 PUSH2 0xCD2 JUMP JUMPDEST SWAP1 POP SWAP2 SWAP1 POP JUMP JUMPDEST PUSH0 PUSH1 0x60 DUP3 ADD SWAP1 POP PUSH2 0xD25 PUSH0 DUP4 ADD DUP7 PUSH2 0x8B4 JUMP JUMPDEST PUSH2 0xD32 PUSH1 0x20 DUP4 ADD DUP6 PUSH2 0x8B4 JUMP JUMPDEST PUSH2 0xD3F PUSH1 0x40 DUP4 ADD DUP5 PUSH2 0x8B4 JUMP JUMPDEST SWAP5 SWAP4 POP POP POP POP JUMP JUMPDEST PUSH32 0x53656E6420455448000000000000000000000000000000000000000000000000 PUSH0 DUP3 ADD MSTORE POP JUMP JUMPDEST PUSH0 PUSH2 0xD7B PUSH1 0x8 DUP4 PUSH2 0xA31 JUMP JUMPDEST SWAP2 POP PUSH2 0xD86 DUP3 PUSH2 0xD47 JUMP JUMPDEST PUSH1 0x20 DUP3 ADD SWAP1 POP SWAP2 SWAP1 POP JUMP JUMPDEST PUSH0 PUSH1 0x20 DUP3 ADD SWAP1 POP DUP2 DUP2 SUB PUSH0 DUP4 ADD MSTORE PUSH2 0xDA8 DUP2 PUSH2 0xD6F JUMP JUMPDEST SWAP1 POP SWAP2 SWAP1 POP JUMP JUMPDEST PUSH32 0x416C7265616479207374616B696E67202D20756E7374616B6520666972737400 PUSH0 DUP3 ADD MSTORE POP JUMP JUMPDEST PUSH0 PUSH2 0xDE3 PUSH1 0x1F DUP4 PUSH2 0xA31 JUMP JUMPDEST SWAP2 POP PUSH2 0xDEE DUP3 PUSH2 0xDAF JUMP JUMPDEST PUSH1 0x20 DUP3 ADD SWAP1 POP SWAP2 SWAP1 POP JUMP JUMPDEST PUSH0 PUSH1 0x20 DUP3 ADD SWAP1 POP DUP2 DUP2 SUB PUSH0 DUP4 ADD MSTORE PUSH2 0xE10 DUP2 PUSH2 0xDD7 JUMP JUMPDEST SWAP1 POP SWAP2 SWAP1 POP JUMP INVALID LOG2 PUSH5 0x6970667358 0x22 SLT KECCAK256 SWAP1 0xC8 JUMP PUSH26 0x709A0501B26E497DD5E9779FF50A46A4C15C1ED8821A8BF18366 MOD COINBASE PUSH5 0x736F6C6343 STOP ADDMOD EQ STOP CALLER "},"methodIdentifiers":{"annualRate()":"c0f9b0fb","blocksPerYear()":"a385fb96","fundRewardPool()":"20828339","getBalance()":"12065fe0","getStakerCount()":"1319649d","owner()":"8da5cb5b","rewardPool()":"66666aa9","stake()":"3a4b66f1","stakerList(uint256)":"348e50c6","stakes(address)":"16934fc4","totalStaked()":"817b1cd2","unstake()":"2def6620"}}}}}