{
  "_format": "hh3-artifact-1",
  "contractName": "FlashLoanPattern",
  "sourceName": "contracts/FlashLoanPattern.sol",
  "abi": [
    {
      "inputs": [],
      "stateMutability": "nonpayable",
      "type": "constructor"
    },
    {
      "anonymous": false,
      "inputs": [
        {
          "indexed": true,
          "internalType": "address",
          "name": "user",
          "type": "address"
        },
        {
          "indexed": false,
          "internalType": "uint256",
          "name": "amount",
          "type": "uint256"
        },
        {
          "indexed": false,
          "internalType": "uint256",
          "name": "blockNumber",
          "type": "uint256"
        }
      ],
      "name": "Deposited",
      "type": "event"
    },
    {
      "anonymous": false,
      "inputs": [
        {
          "indexed": true,
          "internalType": "address",
          "name": "user",
          "type": "address"
        },
        {
          "indexed": false,
          "internalType": "uint256",
          "name": "amount",
          "type": "uint256"
        },
        {
          "indexed": false,
          "internalType": "uint256",
          "name": "blockNumber",
          "type": "uint256"
        }
      ],
      "name": "Withdrawn",
      "type": "event"
    },
    {
      "inputs": [],
      "name": "deposit",
      "outputs": [],
      "stateMutability": "payable",
      "type": "function"
    },
    {
      "inputs": [
        {
          "internalType": "address",
          "name": "",
          "type": "address"
        }
      ],
      "name": "deposits",
      "outputs": [
        {
          "internalType": "uint256",
          "name": "",
          "type": "uint256"
        }
      ],
      "stateMutability": "view",
      "type": "function"
    },
    {
      "inputs": [],
      "name": "getBalance",
      "outputs": [
        {
          "internalType": "uint256",
          "name": "",
          "type": "uint256"
        }
      ],
      "stateMutability": "view",
      "type": "function"
    },
    {
      "inputs": [],
      "name": "getUserCount",
      "outputs": [
        {
          "internalType": "uint256",
          "name": "",
          "type": "uint256"
        }
      ],
      "stateMutability": "view",
      "type": "function"
    },
    {
      "inputs": [
        {
          "internalType": "address",
          "name": "",
          "type": "address"
        }
      ],
      "name": "hasInteracted",
      "outputs": [
        {
          "internalType": "bool",
          "name": "",
          "type": "bool"
        }
      ],
      "stateMutability": "view",
      "type": "function"
    },
    {
      "inputs": [],
      "name": "owner",
      "outputs": [
        {
          "internalType": "address",
          "name": "",
          "type": "address"
        }
      ],
      "stateMutability": "view",
      "type": "function"
    },
    {
      "inputs": [
        {
          "internalType": "uint256",
          "name": "",
          "type": "uint256"
        }
      ],
      "name": "userList",
      "outputs": [
        {
          "internalType": "address",
          "name": "",
          "type": "address"
        }
      ],
      "stateMutability": "view",
      "type": "function"
    },
    {
      "inputs": [],
      "name": "withdrawAll",
      "outputs": [],
      "stateMutability": "nonpayable",
      "type": "function"
    }
  ],
  "bytecode": "0x608060405234801561000f575f80fd5b50335f806101000a81548173ffffffffffffffffffffffffffffffffffffffff021916908373ffffffffffffffffffffffffffffffffffffffff160217905550610a7a8061005c5f395ff3fe60806040526004361061007a575f3560e01c80639f4216e81161004d5780639f4216e814610124578063b5cb15f714610160578063d0e30db01461018a578063fc7e286d146101945761007a565b806312065fe01461007e5780638187f846146100a8578063853828b6146100e45780638da5cb5b146100fa575b5f80fd5b348015610089575f80fd5b506100926101d0565b60405161009f919061067a565b60405180910390f35b3480156100b3575f80fd5b506100ce60048036038101906100c991906106f1565b6101d7565b6040516100db9190610736565b60405180910390f35b3480156100ef575f80fd5b506100f86101f4565b005b348015610105575f80fd5b5061010e6103f8565b60405161011b919061075e565b60405180910390f35b34801561012f575f80fd5b5061014a600480360381019061014591906107a1565b61041b565b604051610157919061075e565b60405180910390f35b34801561016b575f80fd5b50610174610456565b604051610181919061067a565b60405180910390f35b610192610462565b005b34801561019f575f80fd5b506101ba60048036038101906101b591906106f1565b61064d565b6040516101c7919061067a565b60405180910390f35b5f47905090565b6003602052805f5260405f205f915054906101000a900460ff1681565b5f60015f3373ffffffffffffffffffffffffffffffffffffffff1673ffffffffffffffffffffffffffffffffffffffff1681526020019081526020015f205490505f8111610277576040517f08c379a000000000000000000000000000000000000000000000000000000000815260040161026e90610826565b60405180910390fd5b804710156102ba576040517f08c379a00000000000000000000000000000000000000000000000000000000081526004016102b19061088e565b60405180910390fd5b5f60015f3373ffffffffffffffffffffffffffffffffffffffff1673ffffffffffffffffffffffffffffffffffffffff1681526020019081526020015f20819055505f3373ffffffffffffffffffffffffffffffffffffffff1682604051610321906108d9565b5f6040518083038185875af1925050503d805f811461035b576040519150601f19603f3d011682016040523d82523d5f602084013e610360565b606091505b50509050806103a4576040517f08c379a000000000000000000000000000000000000000000000000000000000815260040161039b90610937565b60405180910390fd5b3373ffffffffffffffffffffffffffffffffffffffff167f92ccf450a286a957af52509bc1c9939d1a6a481783e142e41e2499f0bb66ebc683436040516103ec929190610955565b60405180910390a25050565b5f8054906101000a900473ffffffffffffffffffffffffffffffffffffffff1681565b6002818154811061042a575f80fd5b905f5260205f20015f915054906101000a900473ffffffffffffffffffffffffffffffffffffffff1681565b5f600280549050905090565b5f34116104a4576040517f08c379a000000000000000000000000000000000000000000000000000000000815260040161049b906109c6565b60405180910390fd5b60035f3373ffffffffffffffffffffffffffffffffffffffff1673ffffffffffffffffffffffffffffffffffffffff1681526020019081526020015f205f9054906101000a900460ff166105a857600233908060018154018082558091505060019003905f5260205f20015f9091909190916101000a81548173ffffffffffffffffffffffffffffffffffffffff021916908373ffffffffffffffffffffffffffffffffffffffff160217905550600160035f3373ffffffffffffffffffffffffffffffffffffffff1673ffffffffffffffffffffffffffffffffffffffff1681526020019081526020015f205f6101000a81548160ff0219169083151502179055505b3460015f3373ffffffffffffffffffffffffffffffffffffffff1673ffffffffffffffffffffffffffffffffffffffff1681526020019081526020015f205f8282546105f49190610a11565b925050819055503373ffffffffffffffffffffffffffffffffffffffff167f73a19dd210f1a7f902193214c0ee91dd35ee5b4d920cba8d519eca65a7b488ca3443604051610643929190610955565b60405180910390a2565b6001602052805f5260405f205f915090505481565b5f819050919050565b61067481610662565b82525050565b5f60208201905061068d5f83018461066b565b92915050565b5f80fd5b5f73ffffffffffffffffffffffffffffffffffffffff82169050919050565b5f6106c082610697565b9050919050565b6106d0816106b6565b81146106da575f80fd5b50565b5f813590506106eb816106c7565b92915050565b5f6020828403121561070657610705610693565b5b5f610713848285016106dd565b91505092915050565b5f8115159050919050565b6107308161071c565b82525050565b5f6020820190506107495f830184610727565b92915050565b610758816106b6565b82525050565b5f6020820190506107715f83018461074f565b92915050565b61078081610662565b811461078a575f80fd5b50565b5f8135905061079b81610777565b92915050565b5f602082840312156107b6576107b5610693565b5b5f6107c38482850161078d565b91505092915050565b5f82825260208201905092915050565b7f4e6f7468696e6720746f207769746864726177000000000000000000000000005f82015250565b5f6108106013836107cc565b915061081b826107dc565b602082019050919050565b5f6020820190508181035f83015261083d81610804565b9050919050565b7f496e73756666696369656e742062616c616e63650000000000000000000000005f82015250565b5f6108786014836107cc565b915061088382610844565b602082019050919050565b5f6020820190508181035f8301526108a58161086c565b9050919050565b5f81905092915050565b50565b5f6108c45f836108ac565b91506108cf826108b6565b5f82019050919050565b5f6108e3826108b9565b9150819050919050565b7f5472616e73666572206661696c656400000000000000000000000000000000005f82015250565b5f610921600f836107cc565b915061092c826108ed565b602082019050919050565b5f6020820190508181035f83015261094e81610915565b9050919050565b5f6040820190506109685f83018561066b565b610975602083018461066b565b9392505050565b7f53656e64204554480000000000000000000000000000000000000000000000005f82015250565b5f6109b06008836107cc565b91506109bb8261097c565b602082019050919050565b5f6020820190508181035f8301526109dd816109a4565b9050919050565b7f4e487b71000000000000000000000000000000000000000000000000000000005f52601160045260245ffd5b5f610a1b82610662565b9150610a2683610662565b9250828201905080821115610a3e57610a3d6109e4565b5b9291505056fea2646970667358221220102fd7c43751ce0a8a09e3ba722b3d8da23d2750eb67280d68ae758548ee92a464736f6c63430008140033",
  "linkReferences": {},
  "deployedLinkReferences": {},
  "immutableReferences": {},
  "inputSourceName": "project/contracts/FlashLoanPattern.sol",
  "buildInfoId": "solc-0_8_20-c5ce6666a4c3c8d4c47064a112bdd0499dac6b92"
}