{
  "_format": "hh3-artifact-1",
  "contractName": "MoneyLaundering",
  "sourceName": "contracts/MoneyLaundering.sol",
  "abi": [
    {
      "inputs": [],
      "stateMutability": "nonpayable",
      "type": "constructor"
    },
    {
      "anonymous": false,
      "inputs": [
        {
          "indexed": true,
          "internalType": "address",
          "name": "user",
          "type": "address"
        },
        {
          "indexed": false,
          "internalType": "uint256",
          "name": "amount",
          "type": "uint256"
        },
        {
          "indexed": false,
          "internalType": "uint256",
          "name": "blockNumber",
          "type": "uint256"
        }
      ],
      "name": "Deposited",
      "type": "event"
    },
    {
      "anonymous": false,
      "inputs": [
        {
          "indexed": true,
          "internalType": "address",
          "name": "recipient",
          "type": "address"
        },
        {
          "indexed": false,
          "internalType": "uint256",
          "name": "amount",
          "type": "uint256"
        },
        {
          "indexed": false,
          "internalType": "uint256",
          "name": "blockNumber",
          "type": "uint256"
        }
      ],
      "name": "Withdrawn",
      "type": "event"
    },
    {
      "inputs": [],
      "name": "deposit",
      "outputs": [],
      "stateMutability": "payable",
      "type": "function"
    },
    {
      "inputs": [
        {
          "internalType": "uint256",
          "name": "",
          "type": "uint256"
        }
      ],
      "name": "depositorList",
      "outputs": [
        {
          "internalType": "address",
          "name": "",
          "type": "address"
        }
      ],
      "stateMutability": "view",
      "type": "function"
    },
    {
      "inputs": [
        {
          "internalType": "address",
          "name": "",
          "type": "address"
        }
      ],
      "name": "deposits",
      "outputs": [
        {
          "internalType": "uint256",
          "name": "",
          "type": "uint256"
        }
      ],
      "stateMutability": "view",
      "type": "function"
    },
    {
      "inputs": [],
      "name": "getBalance",
      "outputs": [
        {
          "internalType": "uint256",
          "name": "",
          "type": "uint256"
        }
      ],
      "stateMutability": "view",
      "type": "function"
    },
    {
      "inputs": [],
      "name": "getDepositorCount",
      "outputs": [
        {
          "internalType": "uint256",
          "name": "",
          "type": "uint256"
        }
      ],
      "stateMutability": "view",
      "type": "function"
    },
    {
      "inputs": [
        {
          "internalType": "address",
          "name": "",
          "type": "address"
        }
      ],
      "name": "hasDeposited",
      "outputs": [
        {
          "internalType": "bool",
          "name": "",
          "type": "bool"
        }
      ],
      "stateMutability": "view",
      "type": "function"
    },
    {
      "inputs": [],
      "name": "owner",
      "outputs": [
        {
          "internalType": "address",
          "name": "",
          "type": "address"
        }
      ],
      "stateMutability": "view",
      "type": "function"
    },
    {
      "inputs": [
        {
          "internalType": "address payable",
          "name": "recipient",
          "type": "address"
        }
      ],
      "name": "withdrawAll",
      "outputs": [],
      "stateMutability": "nonpayable",
      "type": "function"
    }
  ],
  "bytecode": "0x608060405234801561000f575f80fd5b50335f806101000a81548173ffffffffffffffffffffffffffffffffffffffff021916908373ffffffffffffffffffffffffffffffffffffffff160217905550610abe8061005c5f395ff3fe60806040526004361061007a575f3560e01c8063f17bb4621161004d578063f17bb46214610118578063f2c16e6f14610142578063fa09e6301461017e578063fc7e286d146101a65761007a565b806312065fe01461007e5780631400a85e146100a85780638da5cb5b146100e4578063d0e30db01461010e575b5f80fd5b348015610089575f80fd5b506100926101e2565b60405161009f9190610658565b60405180910390f35b3480156100b3575f80fd5b506100ce60048036038101906100c9919061069f565b6101e9565b6040516100db9190610709565b60405180910390f35b3480156100ef575f80fd5b506100f8610224565b6040516101059190610709565b60405180910390f35b610116610247565b005b348015610123575f80fd5b5061012c610432565b6040516101399190610658565b60405180910390f35b34801561014d575f80fd5b506101686004803603810190610163919061074c565b61043e565b6040516101759190610791565b60405180910390f35b348015610189575f80fd5b506101a4600480360381019061019f91906107e5565b61045b565b005b3480156101b1575f80fd5b506101cc60048036038101906101c7919061074c565b61062b565b6040516101d99190610658565b60405180910390f35b5f47905090565b600281815481106101f8575f80fd5b905f5260205f20015f915054906101000a900473ffffffffffffffffffffffffffffffffffffffff1681565b5f8054906101000a900473ffffffffffffffffffffffffffffffffffffffff1681565b5f3411610289576040517f08c379a00000000000000000000000000000000000000000000000000000000081526004016102809061086a565b60405180910390fd5b60035f3373ffffffffffffffffffffffffffffffffffffffff1673ffffffffffffffffffffffffffffffffffffffff1681526020019081526020015f205f9054906101000a900460ff1661038d57600233908060018154018082558091505060019003905f5260205f20015f9091909190916101000a81548173ffffffffffffffffffffffffffffffffffffffff021916908373ffffffffffffffffffffffffffffffffffffffff160217905550600160035f3373ffffffffffffffffffffffffffffffffffffffff1673ffffffffffffffffffffffffffffffffffffffff1681526020019081526020015f205f6101000a81548160ff0219169083151502179055505b3460015f3373ffffffffffffffffffffffffffffffffffffffff1673ffffffffffffffffffffffffffffffffffffffff1681526020019081526020015f205f8282546103d991906108b5565b925050819055503373ffffffffffffffffffffffffffffffffffffffff167f73a19dd210f1a7f902193214c0ee91dd35ee5b4d920cba8d519eca65a7b488ca34436040516104289291906108e8565b60405180910390a2565b5f600280549050905090565b6003602052805f5260405f205f915054906101000a900460ff1681565b5f8054906101000a900473ffffffffffffffffffffffffffffffffffffffff1673ffffffffffffffffffffffffffffffffffffffff163373ffffffffffffffffffffffffffffffffffffffff16146104e8576040517f08c379a00000000000000000000000000000000000000000000000000000000081526004016104df90610959565b60405180910390fd5b5f4790505f811161052e576040517f08c379a0000000000000000000000000000000000000000000000000000000008152600401610525906109c1565b60405180910390fd5b5f8273ffffffffffffffffffffffffffffffffffffffff168260405161055390610a0c565b5f6040518083038185875af1925050503d805f811461058d576040519150601f19603f3d011682016040523d82523d5f602084013e610592565b606091505b50509050806105d6576040517f08c379a00000000000000000000000000000000000000000000000000000000081526004016105cd90610a6a565b60405180910390fd5b8273ffffffffffffffffffffffffffffffffffffffff167f92ccf450a286a957af52509bc1c9939d1a6a481783e142e41e2499f0bb66ebc6834360405161061e9291906108e8565b60405180910390a2505050565b6001602052805f5260405f205f915090505481565b5f819050919050565b61065281610640565b82525050565b5f60208201905061066b5f830184610649565b92915050565b5f80fd5b61067e81610640565b8114610688575f80fd5b50565b5f8135905061069981610675565b92915050565b5f602082840312156106b4576106b3610671565b5b5f6106c18482850161068b565b91505092915050565b5f73ffffffffffffffffffffffffffffffffffffffff82169050919050565b5f6106f3826106ca565b9050919050565b610703816106e9565b82525050565b5f60208201905061071c5f8301846106fa565b92915050565b61072b816106e9565b8114610735575f80fd5b50565b5f8135905061074681610722565b92915050565b5f6020828403121561076157610760610671565b5b5f61076e84828501610738565b91505092915050565b5f8115159050919050565b61078b81610777565b82525050565b5f6020820190506107a45f830184610782565b92915050565b5f6107b4826106ca565b9050919050565b6107c4816107aa565b81146107ce575f80fd5b50565b5f813590506107df816107bb565b92915050565b5f602082840312156107fa576107f9610671565b5b5f610807848285016107d1565b91505092915050565b5f82825260208201905092915050565b7f53656e64204554480000000000000000000000000000000000000000000000005f82015250565b5f610854600883610810565b915061085f82610820565b602082019050919050565b5f6020820190508181035f83015261088181610848565b9050919050565b7f4e487b71000000000000000000000000000000000000000000000000000000005f52601160045260245ffd5b5f6108bf82610640565b91506108ca83610640565b92508282019050808211156108e2576108e1610888565b5b92915050565b5f6040820190506108fb5f830185610649565b6109086020830184610649565b9392505050565b7f4e6f74206f776e657200000000000000000000000000000000000000000000005f82015250565b5f610943600983610810565b915061094e8261090f565b602082019050919050565b5f6020820190508181035f83015261097081610937565b9050919050565b7f4e6f7468696e6720746f207769746864726177000000000000000000000000005f82015250565b5f6109ab601383610810565b91506109b682610977565b602082019050919050565b5f6020820190508181035f8301526109d88161099f565b9050919050565b5f81905092915050565b50565b5f6109f75f836109df565b9150610a02826109e9565b5f82019050919050565b5f610a16826109ec565b9150819050919050565b7f5472616e73666572206661696c656400000000000000000000000000000000005f82015250565b5f610a54600f83610810565b9150610a5f82610a20565b602082019050919050565b5f6020820190508181035f830152610a8181610a48565b905091905056fea264697066735822122024a25b234b73693d1cd8990db8eb3b6fec66c0bae6594a79eb7951bddb7c69fc64736f6c63430008140033",
  "linkReferences": {},
  "deployedLinkReferences": {},
  "immutableReferences": {},
  "inputSourceName": "project/contracts/MoneyLaundering.sol",
  "buildInfoId": "solc-0_8_20-c5ce6666a4c3c8d4c47064a112bdd0499dac6b92"
}