{
  "_format": "hh3-artifact-1",
  "contractName": "PumpDump",
  "sourceName": "contracts/PumpDump.sol",
  "abi": [
    {
      "inputs": [],
      "stateMutability": "nonpayable",
      "type": "constructor"
    },
    {
      "anonymous": false,
      "inputs": [
        {
          "indexed": true,
          "internalType": "address",
          "name": "user",
          "type": "address"
        },
        {
          "indexed": false,
          "internalType": "uint256",
          "name": "amount",
          "type": "uint256"
        },
        {
          "indexed": false,
          "internalType": "uint256",
          "name": "blockNumber",
          "type": "uint256"
        }
      ],
      "name": "Deposited",
      "type": "event"
    },
    {
      "anonymous": false,
      "inputs": [
        {
          "indexed": true,
          "internalType": "address",
          "name": "user",
          "type": "address"
        },
        {
          "indexed": false,
          "internalType": "uint256",
          "name": "amount",
          "type": "uint256"
        },
        {
          "indexed": false,
          "internalType": "uint256",
          "name": "blockNumber",
          "type": "uint256"
        }
      ],
      "name": "Withdrawn",
      "type": "event"
    },
    {
      "inputs": [
        {
          "internalType": "address",
          "name": "user",
          "type": "address"
        }
      ],
      "name": "addInsider",
      "outputs": [],
      "stateMutability": "nonpayable",
      "type": "function"
    },
    {
      "inputs": [],
      "name": "deposit",
      "outputs": [],
      "stateMutability": "payable",
      "type": "function"
    },
    {
      "inputs": [
        {
          "internalType": "address",
          "name": "",
          "type": "address"
        }
      ],
      "name": "deposits",
      "outputs": [
        {
          "internalType": "uint256",
          "name": "",
          "type": "uint256"
        }
      ],
      "stateMutability": "view",
      "type": "function"
    },
    {
      "inputs": [],
      "name": "getBalance",
      "outputs": [
        {
          "internalType": "uint256",
          "name": "",
          "type": "uint256"
        }
      ],
      "stateMutability": "view",
      "type": "function"
    },
    {
      "inputs": [],
      "name": "getParticipantCount",
      "outputs": [
        {
          "internalType": "uint256",
          "name": "",
          "type": "uint256"
        }
      ],
      "stateMutability": "view",
      "type": "function"
    },
    {
      "inputs": [
        {
          "internalType": "address",
          "name": "",
          "type": "address"
        }
      ],
      "name": "hasParticipated",
      "outputs": [
        {
          "internalType": "bool",
          "name": "",
          "type": "bool"
        }
      ],
      "stateMutability": "view",
      "type": "function"
    },
    {
      "inputs": [
        {
          "internalType": "uint256",
          "name": "amount",
          "type": "uint256"
        }
      ],
      "name": "insiderWithdraw",
      "outputs": [],
      "stateMutability": "nonpayable",
      "type": "function"
    },
    {
      "inputs": [
        {
          "internalType": "address",
          "name": "",
          "type": "address"
        }
      ],
      "name": "isInsider",
      "outputs": [
        {
          "internalType": "bool",
          "name": "",
          "type": "bool"
        }
      ],
      "stateMutability": "view",
      "type": "function"
    },
    {
      "inputs": [],
      "name": "owner",
      "outputs": [
        {
          "internalType": "address",
          "name": "",
          "type": "address"
        }
      ],
      "stateMutability": "view",
      "type": "function"
    },
    {
      "inputs": [
        {
          "internalType": "uint256",
          "name": "",
          "type": "uint256"
        }
      ],
      "name": "participantList",
      "outputs": [
        {
          "internalType": "address",
          "name": "",
          "type": "address"
        }
      ],
      "stateMutability": "view",
      "type": "function"
    },
    {
      "inputs": [],
      "name": "withdraw",
      "outputs": [],
      "stateMutability": "nonpayable",
      "type": "function"
    }
  ],
  "bytecode": "0x608060405234801561000f575f80fd5b50335f806101000a81548173ffffffffffffffffffffffffffffffffffffffff021916908373ffffffffffffffffffffffffffffffffffffffff160217905550610e9f8061005c5f395ff3fe60806040526004361061009b575f3560e01c806361eb113d1161006357806361eb113d1461016b5780638da5cb5b146101a7578063ad605729146101d1578063b4fb3ee3146101fb578063d0e30db014610237578063fc7e286d146102415761009b565b806309328f481461009f5780630e6fdaa1146100c757806312065fe0146101035780633ccfd60b1461012d5780633dc76e1214610143575b5f80fd5b3480156100aa575f80fd5b506100c560048036038101906100c091906109ee565b61027d565b005b3480156100d2575f80fd5b506100ed60048036038101906100e891906109ee565b610445565b6040516100fa9190610a58565b60405180910390f35b34801561010e575f80fd5b50610117610480565b6040516101249190610a80565b60405180910390f35b348015610138575f80fd5b50610141610487565b005b34801561014e575f80fd5b5061016960048036038101906101649190610ac3565b61066a565b005b348015610176575f80fd5b50610191600480360381019061018c9190610ac3565b61074e565b60405161019e9190610b08565b60405180910390f35b3480156101b2575f80fd5b506101bb61076b565b6040516101c89190610a58565b60405180910390f35b3480156101dc575f80fd5b506101e561078e565b6040516101f29190610a80565b60405180910390f35b348015610206575f80fd5b50610221600480360381019061021c9190610ac3565b61079a565b60405161022e9190610b08565b60405180910390f35b61023f6107b7565b005b34801561024c575f80fd5b5061026760048036038101906102629190610ac3565b6109a2565b6040516102749190610a80565b60405180910390f35b60015f3373ffffffffffffffffffffffffffffffffffffffff1673ffffffffffffffffffffffffffffffffffffffff1681526020019081526020015f205f9054906101000a900460ff16610306576040517f08c379a00000000000000000000000000000000000000000000000000000000081526004016102fd90610b7b565b60405180910390fd5b80471015610349576040517f08c379a000000000000000000000000000000000000000000000000000000000815260040161034090610be3565b60405180910390fd5b5f3373ffffffffffffffffffffffffffffffffffffffff168260405161036e90610c2e565b5f6040518083038185875af1925050503d805f81146103a8576040519150601f19603f3d011682016040523d82523d5f602084013e6103ad565b606091505b50509050806103f1576040517f08c379a00000000000000000000000000000000000000000000000000000000081526004016103e890610c8c565b60405180910390fd5b3373ffffffffffffffffffffffffffffffffffffffff167f92ccf450a286a957af52509bc1c9939d1a6a481783e142e41e2499f0bb66ebc68343604051610439929190610caa565b60405180910390a25050565b60038181548110610454575f80fd5b905f5260205f20015f915054906101000a900473ffffffffffffffffffffffffffffffffffffffff1681565b5f47905090565b5f60025f3373ffffffffffffffffffffffffffffffffffffffff1673ffffffffffffffffffffffffffffffffffffffff1681526020019081526020015f205490505f811161050a576040517f08c379a000000000000000000000000000000000000000000000000000000000815260040161050190610d1b565b60405180910390fd5b5f4790505f8183111561051d578161051f565b825b90505f60025f3373ffffffffffffffffffffffffffffffffffffffff1673ffffffffffffffffffffffffffffffffffffffff1681526020019081526020015f20819055505f811115610615575f3373ffffffffffffffffffffffffffffffffffffffff168260405161059090610c2e565b5f6040518083038185875af1925050503d805f81146105ca576040519150601f19603f3d011682016040523d82523d5f602084013e6105cf565b606091505b5050905080610613576040517f08c379a000000000000000000000000000000000000000000000000000000000815260040161060a90610c8c565b60405180910390fd5b505b3373ffffffffffffffffffffffffffffffffffffffff167f92ccf450a286a957af52509bc1c9939d1a6a481783e142e41e2499f0bb66ebc6824360405161065d929190610caa565b60405180910390a2505050565b5f8054906101000a900473ffffffffffffffffffffffffffffffffffffffff1673ffffffffffffffffffffffffffffffffffffffff163373ffffffffffffffffffffffffffffffffffffffff16146106f7576040517f08c379a00000000000000000000000000000000000000000000000000000000081526004016106ee90610d83565b60405180910390fd5b6001805f8373ffffffffffffffffffffffffffffffffffffffff1673ffffffffffffffffffffffffffffffffffffffff1681526020019081526020015f205f6101000a81548160ff02191690831515021790555050565b6001602052805f5260405f205f915054906101000a900460ff1681565b5f8054906101000a900473ffffffffffffffffffffffffffffffffffffffff1681565b5f600380549050905090565b6004602052805f5260405f205f915054906101000a900460ff1681565b5f34116107f9576040517f08c379a00000000000000000000000000000000000000000000000000000000081526004016107f090610deb565b60405180910390fd5b60045f3373ffffffffffffffffffffffffffffffffffffffff1673ffffffffffffffffffffffffffffffffffffffff1681526020019081526020015f205f9054906101000a900460ff166108fd57600333908060018154018082558091505060019003905f5260205f20015f9091909190916101000a81548173ffffffffffffffffffffffffffffffffffffffff021916908373ffffffffffffffffffffffffffffffffffffffff160217905550600160045f3373ffffffffffffffffffffffffffffffffffffffff1673ffffffffffffffffffffffffffffffffffffffff1681526020019081526020015f205f6101000a81548160ff0219169083151502179055505b3460025f3373ffffffffffffffffffffffffffffffffffffffff1673ffffffffffffffffffffffffffffffffffffffff1681526020019081526020015f205f8282546109499190610e36565b925050819055503373ffffffffffffffffffffffffffffffffffffffff167f73a19dd210f1a7f902193214c0ee91dd35ee5b4d920cba8d519eca65a7b488ca3443604051610998929190610caa565b60405180910390a2565b6002602052805f5260405f205f915090505481565b5f80fd5b5f819050919050565b6109cd816109bb565b81146109d7575f80fd5b50565b5f813590506109e8816109c4565b92915050565b5f60208284031215610a0357610a026109b7565b5b5f610a10848285016109da565b91505092915050565b5f73ffffffffffffffffffffffffffffffffffffffff82169050919050565b5f610a4282610a19565b9050919050565b610a5281610a38565b82525050565b5f602082019050610a6b5f830184610a49565b92915050565b610a7a816109bb565b82525050565b5f602082019050610a935f830184610a71565b92915050565b610aa281610a38565b8114610aac575f80fd5b50565b5f81359050610abd81610a99565b92915050565b5f60208284031215610ad857610ad76109b7565b5b5f610ae584828501610aaf565b91505092915050565b5f8115159050919050565b610b0281610aee565b82525050565b5f602082019050610b1b5f830184610af9565b92915050565b5f82825260208201905092915050565b7f4e6f7420696e73696465720000000000000000000000000000000000000000005f82015250565b5f610b65600b83610b21565b9150610b7082610b31565b602082019050919050565b5f6020820190508181035f830152610b9281610b59565b9050919050565b7f496e73756666696369656e7420636f6e74726163742062616c616e63650000005f82015250565b5f610bcd601d83610b21565b9150610bd882610b99565b602082019050919050565b5f6020820190508181035f830152610bfa81610bc1565b9050919050565b5f81905092915050565b50565b5f610c195f83610c01565b9150610c2482610c0b565b5f82019050919050565b5f610c3882610c0e565b9150819050919050565b7f5472616e73666572206661696c656400000000000000000000000000000000005f82015250565b5f610c76600f83610b21565b9150610c8182610c42565b602082019050919050565b5f6020820190508181035f830152610ca381610c6a565b9050919050565b5f604082019050610cbd5f830185610a71565b610cca6020830184610a71565b9392505050565b7f4e6f7468696e6720746f207769746864726177000000000000000000000000005f82015250565b5f610d05601383610b21565b9150610d1082610cd1565b602082019050919050565b5f6020820190508181035f830152610d3281610cf9565b9050919050565b7f4e6f74206f776e657200000000000000000000000000000000000000000000005f82015250565b5f610d6d600983610b21565b9150610d7882610d39565b602082019050919050565b5f6020820190508181035f830152610d9a81610d61565b9050919050565b7f53656e64204554480000000000000000000000000000000000000000000000005f82015250565b5f610dd5600883610b21565b9150610de082610da1565b602082019050919050565b5f6020820190508181035f830152610e0281610dc9565b9050919050565b7f4e487b71000000000000000000000000000000000000000000000000000000005f52601160045260245ffd5b5f610e40826109bb565b9150610e4b836109bb565b9250828201905080821115610e6357610e62610e09565b5b9291505056fea26469706673582212204d7fa45085ac476865523bfdce00988343d3268df8a42660afbba25c8090ffad64736f6c63430008140033",
  "linkReferences": {},
  "deployedLinkReferences": {},
  "immutableReferences": {},
  "inputSourceName": "project/contracts/PumpDump.sol",
  "buildInfoId": "solc-0_8_20-c5ce6666a4c3c8d4c47064a112bdd0499dac6b92"
}